:020000040800F2
:100000000050002021020008290200082D020008EB
:10001000A1020008A5020008ED020008000000008F
:100020000000000000000000000000005126000851
:100030003903000800000000B1260008F52600087A
:100040005103000851030008510300085103000840
:100050005103000851030008510300085103000830
:100060005103000851030008510300085103000820
:100070005103000851030008510300085103000810
:100080005103000851030008510300085103000800
:1000900051030008510300085103000851030008F0
:1000A00051030008510300085103000851030008E0
:1000B00051030008510300085103000851030008D0
:1000C00051030008510300085103000851030008C0
:1000D00051030008792500082D200008510300086D
:1000E00051030008510300085103000800000000FC
:1000F0000000000000000000000000000000000000
:1001000000000000000000005FF808F100B583B0B7
:1001100001F0D4FA304B314A1360314A1360314B4D
:10012000314A03E011681960043304322F498B42CD
:10013000F8D32A4B1A682E4B9A4204D1284B1A68DE
:100140002C4B9A4200D0FEE7234B2B4A13602B4ADC
:1001500013602B4B02E000221A600433294A9342B9
:10016000F9D3254B1B6813B9244B1B6803B1FEE779
:1001700001F0B0FA01A8694601F02CFA224C234B99
:100180001C1BA410002504E01F4B53F82530984792
:100190000135AC42F8DC1E4C1E4B1C1BA410002584
:1001A00004E01B4B53F8253098470135AC42F8DC8E
:1001B0000198009902F07AF80546174C174B1C1B62
:1001C000A41004E0013C144B53F824309847002C51
:1001D000F8DC284601F0D0F9BABADECA00000020E7
:1001E000A40000200000002024550008A8000020E2
:1001F0007856341232547698A800002070070020F8
:10020000A8000020740700207C0300087C0300087D
:100210007C0300087C0300087C0300087C030008C2
:1002200008B5FFF773FF00BF00BEFEE71EF0040F26
:100230000CBFEFF30880EFF309807146414A104785
:100240002DE9F04182B004468846134B5E6B9D6BEE
:100250009F6A1B6B13F0020F0DD00F4BDB6A002B54
:1002600009DA4BF6AB6101F0B1FA20B14FF0004270
:10027000094BDA620CE0094801F0C0F9CDF80080C2
:100280002046394632462B4601F028FA00BEFEE7EA
:1002900002B0BDE8F08100BF00ED00E03446000888
:1002A00000BEFEE71EF0040F0CBFEFF30880EFF373
:1002B00009807146244A10472DE9F04182B0074673
:1002C0008846084B5D6B9C6B9E6A074801F096F967
:1002D000CDF80080384631462A46234601F0FEF923
:1002E00000BEFEE700ED00E0444600081EF0040FEB
:1002F0000CBFEFF30880EFF309807146134A1047F3
:100300002DE9F04182B007468846084B5D6B9C6B37
:100310009E6A074801F072F9CDF8008038463146F0
:100320002A46234601F0DAF900BEFEE700ED00E0C0
:100330005046000800BEFEE700BEFEE700BEFEE736
:100340007047000041020008B902000801030008DC
:0403500000BEFEE706
:100354002455000800000020A800002024550008AF
:100364000000000000000000A80000207407002026
:08037400000000000000000081
:1003800010B50446B0F5E06F0FD0B0F5C06F0CD0DB
:10039000B0F5A06F09D0B0F5806F06D0B0F5407F02
:1003A00003D00548632101F01DF944F0BF6444F413
:1003B0000034024BDC6010BD7C43000800ED00E01F
:1003C00010B50446C378012B03D92048752101F0EC
:1003D00009F963780F2B03D91C48762101F002F943
:1003E000A3780F2B03D91948772101F0FBF8E378A4
:1003F00003B3174BDA68D243C2F30222C2F10400FE
:100400000F2323FA02F1637803FA00F2A3780B407A
:1004100013431B012278DBB20E490A4482F80033F1
:100420002378580903F01F03012202FA03F341F86D
:10043000203010BD23785A0903F01F030121994091
:1004400002F12003034A42F8231010BD7C43000848
:1004500000ED00E000E100E0F8B505460C46474B32
:1004600098421BD003F58063984217D003F5806350
:10047000984213D003F5806398420FD003F5806350
:1004800098420BD003F58063984207D003F5806350
:10049000984203D03A48B22101F0A4F8E3788BB136
:1004A000042B0FD0282B0DD0482B0BD0142B09D0A8
:1004B000102B07D01C2B05D0182B03D03048B321AC
:1004C00001F090F823881BB92D48B42101F08AF877
:1004D000E37803F00F06304613F0100F0AD0A3782C
:1004E000013BDBB2022B03D92548BB2101F07AF88E
:1004F000A07830432378E3B12E68002216E0012370
:1005000093402188194099420FD197000F21B9409B
:1005100026EA010600FA07F10E43E178282901D105
:100520006B6102E0482900D12B610132072AE6D92C
:100530002E602388FF2B20D96F6800211AE001F17B
:1005400008020123934022881A409A4211D14FEAAF
:10055000810E0F2202FA0EF627EA060200FA0EF7C3
:100560001743E278282A00D16B61E278482A00D14B
:100570002B6101310729E2D96F60F8BD0008014005
:10058000A44300084FF6FF73038002238370042303
:10059000C370704738B504460D462A4B98421CD0AC
:1005A00003F58063984218D003F58063984214D015
:1005B00003F58063984210D003F5806398420CD015
:1005C00003F58063984208D003F58063984204D015
:1005D0001D484FF48F7101F005F86B1E9BB2012B83
:1005E00028D9042D26D0082D24D0102D22D0202D3E
:1005F00020D0402D1ED0802D1CD0B5F5807F19D085
:10060000B5F5007F16D0B5F5806F13D0B5F5006F46
:1006100010D0B5F5805F0DD0B5F5005F0AD0B5F507
:10062000804F07D0B5F5004F04D0074840F21F11A6
:1006300000F0D8FFA3682B4201D0012038BD002074
:1006400038BD00BF00080140A443000838B5044687
:100650000D462A4B98421CD003F58063984218D06F
:1006600003F58063984214D003F58063984210D05C
:1006700003F5806398420CD003F58063984208D05C
:1006800003F58063984204D01D484FF4A27100F036
:10069000A9FF6B1E9BB2012B28D9042D26D0082D53
:1006A00024D0102D22D0202D20D0402D1ED0802DE2
:1006B0001CD0B5F5807F19D0B5F5007F16D0B5F503
:1006C000806F13D0B5F5006F10D0B5F5805F0DD0F9
:1006D000B5F5005F0AD0B5F5804F07D0B5F5004FEE
:1006E00004D0074840F2451100F07CFFE3682B423C
:1006F00001D0012038BD002038BD00BF00080140F6
:10070000A443000838B504460D46144B98421CD04B
:1007100003F58063984218D003F58063984214D0A3
:1007200003F58063984210D003F5806398420CD0A3
:1007300003F58063984208D003F58063984204D0A3
:10074000074840F2691100F04DFF25B904484FF405
:10075000B57100F047FF256138BD00BF00080140BA
:10076000A443000838B504460D46144B98421CD0EB
:1007700003F58063984218D003F58063984214D043
:1007800003F58063984210D003F5806398420CD043
:1007900003F58063984208D003F58063984204D043
:1007A000074840F2791100F01DFF25B904484FF4C5
:1007B000BD7100F017FF656138BD00BF0008014042
:1007C000A443000838B504460D46431E012B40F2F1
:1007D0009080042800F08D80082800F08A80634B08
:1007E000984200F086802033984200F08280604B6F
:1007F00098427ED0803398427BD05E4B984278D02E
:1008000003F58073984274D003F58073984270D0DA
:10081000594B98426DD003F58063984269D0B0F58A
:10082000805F66D0B0F5EA1F63D0B0F5EB1F60D0F3
:10083000B0F5004F5DD0514B98425AD001339842E9
:1008400057D00233984254D00433984251D00833E1
:1008500098424ED0B0F1201F4BD03033984248D050
:10086000474B984245D003F58073984241D003F539
:10087000007398423DD0434B98423AD003F57063E1
:10088000984236D0B0F5011F33D03F4B984230D05C
:10089000013398422DD0023398422AD00433984233
:1008A00027D00833984224D01033984221D02033E7
:1008B00098421ED0403398421BD08033984218D0C3
:1008C00003F58073984214D003F50073984210D05A
:1008D00003F5806398420CD003F50063984208D07A
:1008E00003F58053984204D0284840F22A2100F0B2
:1008F00079FE012D04D9254840F22B2100F072FE2B
:10090000002C02DA224BDB6901E0214B5B68C4F367
:100910000340A2B204F44011B1F5401F07D123F007
:1009200070631B48416821F07061416011E014F46C
:10093000801F06D00321814023EA010343F0706346
:1009400007E0610D090102FA01F123EA010343F016
:1009500070631DB1610D09018A401343002C02DA56
:100960000B4AD36138BD0A4A536038BD10001400E9
:10097000400016000001180000081A0001002000C5
:10098000000130000011200001000080A443000895
:1009900000000140F0B587B004460D46544B984224
:1009A00007D003F58063984203D05248C62100F077
:1009B00019FE2B68013B504A934203D94D48C72189
:1009C00000F010FEAB883BB1022B05D00A2B03D000
:1009D0004848C82100F006FEEB88B3F5804F07D0E9
:1009E0004BF6FF72934203D04248C92100F0FAFD52
:1009F0002B89B3F5806F03D33E48CA2100F0F2FD86
:100A00006B89B3F5806F04D01BB13A48CB2100F05D
:100A1000E9FDAB89B3F5804F06D0B3F5404F03D065
:100A20003448CC2100F0DEFDA68826F03F063604CF
:100A3000360C01A800F032FA03983049A1FB0031CE
:100A4000890C8FB23E43A680228822F00102120454
:100A5000120C22802B682A4A934209D85B00B0FB13
:100A6000F3F39BB2032B00D804230137278427E03C
:100A7000EE884BF6FF72964205D103EB4302B0FBC2
:100A8000F2F39BB208E003EB830303EB8303B0FBB9
:100A9000F3F39BB243F48043C3F30B020AB943F070
:100AA000010343F400434FF4967201FB02F1154A2F
:100AB00082FB0102C917C1EBA211013189B2218465
:100AC000A38323889BB243F00103238023889BB236
:100AD00023F4816323F00203A9886A890A4313433C
:100AE0002380AA892B891343238107B0F0BD00BF5F
:100AF00000540040D84300087F1A060083DE1B43E1
:100B0000A0860100D34D621038B504460D46104B47
:100B1000984208D003F58063984204D00D484FF402
:100B2000A97100F05FFD012D04D90A4840F253116C
:100B300000F058FD2DB123889BB243F001032380C0
:100B400038BD238823F001031B041B0C238038BD10
:100B500000540040D843000838B505460C462F4BDA
:100B6000984208D003F58063984204D02C484FF493
:100B7000876100F037FD2B4B9C4240D0B4F1021F3F
:100B80003DD0294B9C423AD0B4F5020F37D0B4F592
:100B9000901F34D0254B9C4231D003F500039C427A
:100BA0002DD0A3F5E0039C4229D0214B9C4226D0B6
:100BB00003F500039C4222D0A3F5E0039C421ED023
:100BC000102C1CD01B4B9C4219D01B4B9C4216D0A6
:100BD0001A4B9C4213D03E339C4210D0184B9C427F
:100BE0000DD0043B9C420AD0164B9C4207D0B4F572
:100BF000806F04D00A4840F2394100F0F3FCAB8A20
:100C00009BB22A8B43EA024323F07F432340A34253
:100C100001D1012038BD002038BD00BF0054004084
:100C2000D8430008820006008000860040000200D1
:100C30008400060001000300820007000200030098
:100C400084000700080003000D4B1A6842F00102FF
:100C50001A6059680B4A0A405A601A6822F0847276
:100C600022F480321A601A6822F480221A605A68CC
:100C700022F4FE025A604FF41F029A60704700BFD0
:100C8000001002400000FFF810B5044650B1B0F566
:100C9000803F07D0B0F5802F04D0104840F21111EA
:100CA00000F0A0FC0E4B1A6822F480321A601A6819
:100CB00022F480221A60B4F5803F03D0B4F5802F6F
:100CC00006D010BD064A136843F48033136010BD8C
:100CD000034A136843F4A023136010BD08440008BE
:100CE0000010024038B50C46054650B1B0F5803FC3
:100CF00007D0B0F5403F04D01E4840F27F1100F00D
:100D000071FC74B3B4F5802F2BD0B4F5002F28D02C
:100D1000B4F5402F25D0B4F5801F22D0B4F5A01F24
:100D20001FD0B4F5C01F1CD0B4F5E01F19D0B4F526
:100D3000001F16D0B4F5101F13D0B4F5201F10D02B
:100D4000B4F5301F0DD0B4F5401F0AD0B4F5501FD4
:100D500007D0B4F5601F04D006484FF4C07100F00E
:100D600041FC054A536823F47C132C431C43546014
:100D700038BD00BF084400080010024010B504460A
:100D8000012804D903484FF4CA7100F02BFC024B30
:100D90001C6010BD084400086000424210B50446C3
:100DA000022804D905484FF40E7100F01BFC044AD8
:100DB000536823F003031C43546010BD084400082B
:100DC00000100240024B586800F00C00704700BF52
:100DD0000010024010B50446A0B1802812D090281F
:100DE00010D0A0280ED0B0280CD0C0280AD0D0280F
:100DF00008D0E02806D0F02804D006484FF4197136
:100E000000F0F0FB044A536823F0F0031C435460E5
:100E100010BD00BF084400080010024010B5044691
:100E200080B1B0F5806F0DD0B0F5A06F0AD0B0F5ED
:100E3000C06F07D0B0F5E06F04D0064840F27E21C5
:100E400000F0D0FB044A536823F4E0631C43546071
:100E500010BD00BF084400080010024010B5044651
:100E600080B1B0F5806F0DD0B0F5A06F0AD0B0F5AD
:100E7000C06F07D0B0F5E06F04D006484FF426717C
:100E800000F0B0FB044B586820F4605040EAC40006
:100E9000586010BD084400080010024010B4294BEF
:100EA0005B6803F00C03042B05D0082B06D013BBA2
:100EB000254B036021E0244B03601EE0214A536868
:100EC0005268C3F38343023312F4803F04D11F4AB4
:100ED00002FB03F3036010E01A4A526812F4003F69
:100EE00004D01A4A02FB03F3036006E0164A02FB31
:100EF00003F3036001E0144B0360124A5368C3F329
:100F00000313134CE15CC9B20368CB4043605168E2
:100F1000C1F30221615CC9B223FA01F18160516819
:100F2000C1F3C221615CC9B2CB40C3605268C2F355
:100F3000813208498A5CD2B2B3FBF2F303615DF8F7
:100F4000044B70470010024000127A0000093D0077
:100F5000080000200400002038B504460D460E4B62
:100F6000034003B920B90D4840F24A4100F03AFB72
:100F7000012D04D9094840F24B4100F033FB25B163
:100F8000074B9A6914439C6138BD054A936923EA6B
:100F90000404946138BD00BF0200C0FF084400088B
:100FA0000010024038B504460D460E4B184200D1E1
:100FB00020B90D4840F2694100F014FB012D04D91D
:100FC000094840F26A4100F00DFB25B1074BDA6990
:100FD0001443DC6138BD054AD36923EA0404D461B3
:100FE00038BD00BF003601810844000800100240EF
:100FF00010B50446212818D0312816D0392814D02D
:10100000412812D0612810D07A280ED07B280CD02D
:101010007C280AD07D2808D07E2806D07F2804D0DE
:101020000D4840F2345100F0DDFA6309012B02D182
:101030000A4B1B6806E0022B02D1084B1B6A01E039
:10104000064B5B6A04F01F04E34013F0010F01D06C
:10105000012010BD002010BD08440008001002400F
:1010600000B583B0002301933120FFF7C1FF019B3E
:1010700001330193019BB3F5A06F01D00028F3D099
:101080003120FFF7B5FF08B1012000E0002003B0D8
:101090005DF804FB30B587B004460D46654B9842B9
:1010A00013D0A3F5744398420FD003F580639842A0
:1010B0000BD003F58063984207D003F58063984214
:1010C00003D05D48B82100F08DFA2B68013B5B4AE4
:1010D000934203D95848B92100F084FAAB8833B160
:1010E000B3F5805F03D05448BA2100F07BFAEB8857
:1010F00063B1B3F5805F09D0B3F5005F06D0B3F5F7
:10110000405F03D04C48BB2100F06CFA2B894BB1F7
:10111000B3F5806F06D0B3F5C06F03D04648BC214D
:1011200000F060FA6A8922F00C039BB203B91AB985
:101130004148BD2100F056FAAB8963B1B3F5807F19
:1011400009D0B3F5007F06D0B3F5407F03D03A480D
:10115000BE2100F047FAAB8973B1364B9C420BD0ED
:10116000A3F574439C4207D003F580639C4203D0EF
:101170003148C22100F036FA238A23F440531B047D
:101180001B0CEA8813432382A3899BB223F4B05338
:1011900023F00C01A8882A896B89024313430B436F
:1011A000A381A38A23F440731B041B0CAA89134355
:1011B000A38201A8FFF772FE1E4B9C4201D1049B43
:1011C00000E0039BA28912B2002A08DA03EB830332
:1011D00003EB830329684900B3FBF1F107E003EB5C
:1011E000830303EB830329688900B3FBF1F1144BFC
:1011F000A3FB012358090501642300FB1313A289F3
:1012000012B2002A09DAD90032310D4AA2FB0131AB
:10121000C1F3421242EA050307E01B013233084AD8
:10122000A2FB0323C3F343132B439BB2238107B0D9
:1012300030BD00BF00380140384400081FAA4400F8
:101240001F85EB5138B504460D46164B984214D015
:10125000A3F57443984210D003F5806398420CD0F4
:1012600003F58063984208D003F58063984204D068
:101270000D484FF4B17100F0B5F9012D04D90A48B9
:1012800040F2631100F0AEF92DB1A3899BB243F493
:101290000053A38138BDA38923F400531B041B0C06
:1012A000A38138BD003801403844000870B50446B9
:1012B0000D461646364B984214D0A3F57443984217
:1012C00010D003F5806398420CD003F580639842F8
:1012D00008D003F58063984204D02E4840F289116B
:1012E00000F080F9282D1ED040F227739D421AD0BD
:1012F00040F226639D4216D040F225539D4212D003
:1013000040F224439D420ED040F646039D420AD04F
:1013100040F66A139D4206D0602D04D01D484FF45C
:10132000C57100F05FF9012E04D91A4840F28B1103
:1013300000F058F940F66A139D420FD1144B9C42BD
:101340000CD0A3F574439C4208D003F580639C4203
:1013500004D0104840F28F1100F044F9C5F3421256
:1013600005F01F050123AB40012A01D10C3404E034
:10137000022A01D1103400E014341EB12268134354
:10138000236070BD226822EA0303236070BD00BFA2
:10139000003801403844000810B504460D4B98420F
:1013A00014D0A3F57443984210D003F5806398429B
:1013B0000CD003F58063984208D003F5806398420F
:1013C00004D005484FF41C7100F00CF9A088C0F35C
:1013D000080010BD003801403844000838B5054603
:1013E0000C463B4B984214D0A3F57443984210D05E
:1013F00003F5806398420CD003F58063984208D0CF
:1014000003F58063984204D0324840F2D93100F0AD
:10141000E9F8282C25D040F227739C4221D040F2D5
:1014200026639C421DD040F225539C4219D040F2C5
:1014300024439C4215D040F646039C4211D040F60E
:101440006A139C420DD0B4F5587F0AD0B4F5187FCA
:1014500007D0B4F5B07F04D01E4840F2DA3100F076
:10146000C1F840F66A139C420FD1194B9D420CD033
:10147000A3F574439D4208D003F580639D4204D0D8
:10148000144840F2DE3100F0ADF8C4F3421204F02B
:101490001F0101238B40012A03D1AA8992B2134074
:1014A00008E0022A03D12A8A92B2134002E0AA8AF3
:1014B00092B21340240A0122A240298889B20A402C
:1014C00013B11AB9002038BD002038BD012038BD45
:1014D000003801403844000838B505460C46244B16
:1014E000984214D0A3F57443984210D003F580635A
:1014F00098420CD003F58063984208D003F58063CE
:10150000984204D01B4840F2224100F06BF840F2B0
:1015100026639C4210D040F225539C420CD040F6EA
:1015200046039C4208D040F66A139C4204D01148FE
:1015300040F2234100F056F840F66A139C420FD166
:101540000B4B9D420CD0A3F574439D4208D003F58C
:1015500080639D4204D0074840F2274100F042F8E2
:10156000240A0123A340DB439BB22B8038BD00BF7C
:101570000038014038440008FEE700BF08B50348C2
:1015800000F056F80120FFF7F7FF00BF6C44000899
:1015900008B50D4B1B6813B90C4A0B4B1A600A4B6C
:1015A0001A68C31C23F00303134409498B4206D96C
:1015B00002F0F8F90C2303604FF0FF3008BD024938
:1015C0000B60104608BD00BFAC000020740700206F
:1015D000004C002001230360014B0B60704700BFEB
:1015E0001800002008B503460A460348194600F0D3
:1015F00005F8FFF7C3FF00BFC04400080FB400B5F3
:1016000083B004AB53F8042B01930848802102F007
:1016100069FB011E03DD054800F04CF80146084651
:1016200003B05DF804EB04B0704700BFB4000020C5
:1016300010B5044602F0D0FA0146204600F03AF810
:101640000248012100F036F810BD00BFB045000887
:101650002DE9F04385B004460F46435C13BB0425D7
:1016600028462146ABBE04461FE03546102E28BF53
:101670001025002306E014F8011B04AA1A4402F8FE
:10168000101C0133AB42F6D304AA1344002203F822
:10169000102CE9464FF0040840464946ABBE804650
:1016A000761B00E00E46002EDFD1384605B0BDE8BF
:1016B000F08300BF08B5FFF7CBFF08BD08B500F009
:1016C000FBF8024B024A9A6008BD00BF00ED00E043
:1016D0000000000808B500F017F908BDF8B5044689
:1016E0000D4617461E462648FFF788FF2548216805
:1016F000FFF784FF24486168FFF780FF2348A16853
:10170000FFF77CFF2248E168FFF778FF2148216955
:10171000FFF774FF20486169FFF770FF1F48A16958
:10172000FFF76CFF1E48E169FFF768FF1D48FFF7F0
:1017300065FF1D482946FFF761FF1C4CE16A1C4804
:10174000FFF75CFF216B1B48FFF758FFE16B1A485E
:10175000FFF754FF15F0800F03D018483946FFF704
:101760004DFF15F4004F03D015483146FFF746FFF3
:101770001448FFF743FF14480699FFF73FFFF8BDF1
:101780001845000828450008384500084845000865
:101790005845000868450008784500088845000855
:1017A00098450008A8450008B445000800ED00E091
:1017B000C4450008D4450008E4450008F445000885
:1017C00004460008144600081C46000883691A886D
:1017D0008A4207D10268033A012A05D8023383619D
:1017E00001207047002070470020704782B000231E
:1017F000019300932C4A136843F4803313602A4BFF
:101800001B6803F400330093019B01330193009B99
:101810001BB9019BB3F5A06FF1D1234B1B6813F4E7
:10182000003F02D00123009301E000230093009BBE
:10183000012B36D11D4B1A6842F010021A601A684B
:1018400022F003021A601A6842F002021A60A3F53D
:1018500080535A685A605A685A605A6842F48062E3
:101860005A605A6822F47C125A605A6842F4E812AC
:101870005A601A6842F080721A600B4B1B6813F0B2
:10188000007FFAD0084B5A6822F003025A605A6867
:1018900042F002025A60044B5B6803F00C03082B11
:1018A000F9D102B0704700BF001002400020024092
:1018B00008B5FFF79BFF08BD08B5104B1A6842F04A
:1018C00001021A6059680E4A0A405A601A6822F0EA
:1018D000847222F480321A601A6822F480221A601C
:1018E0005A6822F4FE025A604FF41F029A60FFF712
:1018F000DFFF4FF00062034B9A6008BD001002400A
:101900000000FFF800ED00E01F4B5B6803F00C03E4
:10191000042B06D0082B08D03BBB1C4A1C4B1A607A
:1019200026E01A4A1A4B1A6022E0174A5368526896
:10193000C3F38343023312F4803F05D1154A02FBFF
:1019400003F3134A136013E00F4A526812F4003F86
:1019500005D0104A02FB03F30D4A136008E00B4A5E
:1019600002FB03F30A4A136002E0084A084B1A60BC
:10197000054B5B68C3F30313074AD25CD2B2044938
:101980000B68D3400B6070470010024000127A00D1
:101990003000002000093D0020000020038803F0F3
:1019A00080039BB2002BF9D089B28180038803F0B9
:1019B00040039BB2002BF9D0704700BF38B50546F5
:1019C0000C4603E02846FFF7E9FF0134217800299F
:1019D000F8D138BD10B50446FFF7F0FF20460D21C1
:1019E000FFF7DCFF20460A21FFF7D8FF10BD00BF3C
:1019F00030B585B005460022541C0F4BA3FB0103F4
:101A0000DB08184603EB83035B00CB1A04A90A44E6
:101A1000303302F80C3C014622460028ECD107E0A6
:101A2000013C04AB2344284613F80C1CFFF7B6FF17
:101A3000002CF5D105B030BDCDCCCCCC10B50446D2
:101A400001F020FD204601F0CDFF044601F0A0FD8D
:101A5000204610BD48B110B5044601F013FD2046E4
:101A600001F0C8FF01F094FD10BD704700F10803BC
:101A700043604FF0FF328260C36003610023036064
:101A8000704700BF00230361704700BF43684B608D
:101A90009A688A609A6851609960086103680133A6
:101AA0000360704730B40D68B5F1FF3F01D10269A2
:101AB00007E000F1080200E01A4653681C68AC42D7
:101AC000FAD953684B6099608A6051600861036875
:101AD0000133036030BC70470369426881689160DC
:101AE0008268416851605A68824201D182685A60B6
:101AF00000220261186801381860704770B582B022
:101B0000064601F0C7FC019001F0C4FC0146244CDC
:101B10002046FFF76DFF20462249FFF74FFF204682
:101B20003146FFF757FF002001F0A2F801F0B2FCA8
:101B30001D4D29460A2201F052FF0020014601F006
:101B40009BF91A4C1A482146012201F0EBF91E209C
:101B5000002101F091F928462146012201F0E2F925
:101B60000020132101F088F930462146012201F0BE
:101B7000D9F9104B188829460A2201F030FF0020BD
:101B8000262101F079F928462146012201F0CAF9FF
:101B900001F040F8316901A801F06AFDB4E700BF27
:101BA00000380140E85300083C06002034000020C3
:101BB000EC530008340100202DE9F04182B02048A8
:101BC0000121FEF7FFFD01A8FEF7DCFC10238DF8D4
:101BD000073002238DF806304FF48058ADF80480AA
:101BE000184C204601A9FEF737FC4FF40057ADF81A
:101BF0000470204601A9FEF72FFC4FF48046ADF893
:101C00000460204601A9FEF727FC4FF40045ADF81B
:101C10000450204601A9FEF71FFC20464146FEF76E
:101C2000A1FD20463946FEF79DFD20463146FEF7D0
:101C300099FD20462946FEF795FD02B0BDE8F081EA
:101C400000023000000C014010B5042871D8DFE814
:101C500000F003192F455B00364C20464FF48051AD
:101C6000FEF780FD20464FF40051FEF77BFD204635
:101C70004FF48041FEF776FD20464FF40041FEF719
:101C800071FD10BD2B4C20464FF48051FEF73AFDFC
:101C900020464FF40051FEF765FD20464FF4804189
:101CA000FEF760FD20464FF40041FEF75BFD10BDDE
:101CB000204C20464FF48051FEF724FD20464FF47F
:101CC0000051FEF71FFD20464FF48041FEF74AFD0C
:101CD00020464FF40041FEF745FD10BD154C20464F
:101CE0004FF48051FEF70EFD20464FF40051FEF7F1
:101CF00009FD20464FF48041FEF704FD20464FF4D5
:101D00000041FEF72FFD10BD0A4C20464FF48051D4
:101D1000FEF7F8FC20464FF40051FEF7F3FC204696
:101D20004FF48041FEF7EEFC20464FF40041FEF7F1
:101D3000E9FC10BD000C014008B5044800218022D8
:101D400001F06BFE0022024B1A6008BDEC06002079
:101D500054060020024B1868003018BF012070475D
:101D600054060020F8B506460D461746FFF7E4FF77
:101D70000F4C20460F49FFF721FE20463146FFF762
:101D80001DFE25B920460C49FFF718FE0AE0012D7B
:101D900008D1074C20460949FFF710FE2046394676
:101DA000FFF70CFE02480649FFF714FEF8BD00BF1E
:101DB00000440040F0530008F4530008F8530008B2
:101DC0001445000810B50446074801F005FF7F28B8
:101DD00006DC0548214601F007FF18B1012010BDBF
:101DE000002010BD002010BDEC060020F8B507460D
:101DF0000E4601F04FFB054609E0FFF7ABFF18B1B7
:101E00003846FFF7DFFF48B9322001F065FC74194E
:101E100001F040FBA042F0D30020F8BD0120F8BD46
:101E20002DE9F04107468846164601F033FB05468A
:101E30000DE0FFF78FFF38B13846FFF7C3FF70B9E9
:101E40004046FFF7BFFF68B9322001F045FC741926
:101E500001F020FBA042ECD30020BDE8F08101207E
:101E6000BDE8F0810020BDE8F08100BF00B583B07F
:101E700000238DF8053008B1312300E0302302AA99
:101E800002F8043D05480121FFF76CFF04484FF4B8
:101E9000FA71FFF7ABFF03B05DF804FBE0530008F5
:101EA000D0530008802907DD4FF0FF3070470A4A01
:101EB000D25CC254013300E000238B42F7DB0023E5
:101EC00004E05818044A105CD0540133C1F1800278
:101ED0009A42F6DC084670476C06002000B583B0D5
:101EE000024600238DF804308DF8053001A808491A
:101EF00001F046FE0748012101AAFFF733FF06481B
:101F00004FF4FA71FFF772FF03B05DF804FB00BFF6
:101F1000FC530008C8530008D0530008B1F5006F07
:101F200021D810B582B00B4604466846114901F02D
:101F300027FE114801216A46FFF714FF0F48104998
:101F40004FF4FA72FFF76CFF78B1FFF7F5FE0D481A
:101F50002146FFF733FD0C484FF4FA71FFF746FFB7
:101F600028B1012004E000207047002000E000209C
:101F700002B010BD18540008B4540008D053000833
:101F8000AC540008004400402054000808B5FFF796
:101F9000E1FE0346F0B11048FFF714FF0346C8B155
:101FA0000E480F4901F020FE034690B113F9012FAE
:101FB0003A2AFBD10133002204E00A48815401325D
:101FC000D2B2013319780029F7D1FFF7B5FE01230A
:101FD00000E00023184608BDD8530008EC06002096
:101FE000285400086C06002000B583B003466846FC
:101FF0000B49012201F0C4FD0A4801216A46FFF79E
:10200000B1FEFFF799FE08484FF4FA71FFF7EEFEB4
:10201000034600B10123184603B05DF804FB00BF7E
:1020200018540008BC530008D053000810B582B003
:1020300000230193134840F22551FFF7CFF940B137
:10204000114B1C68621C1A600E48FFF7A5F90F4B74
:1020500018550D4B1B687F2B02D900220A4B1A60C2
:102060000B4B186801A900F003FD019B3BB14FF039
:102070008052084B1A60BFF34F8FBFF36F8F02B0CF
:1020800010BD00BF0044004054060020EC060020B4
:102090005006002004ED00E008B501290DD10378B9
:1020A000042B02D80133037001E001230370007890
:1020B0000138C0B2FFF7C8FD08BD61B90378012B34
:1020C00002D9013B037001E0052303700078013859
:1020D000C0B2FFF7B9FD08BD70B582B001F0DAF902
:1020E00001900220FFF7FAFE08B9002400E0012465
:1020F00000254FF4FA76002D4DD1FCB90220FFF7F0
:10210000EDFED8B13548364901F05EFD354B186813
:1021100000214FF0FF320B4600F0DCFC01280CD10F
:1021200031483249FFF756FC2E4B186800210A4609
:102130000B4600F019FC012400E00124002C48D0DB
:10214000002D46D10120FFF791FE40F2DC50FFF751
:102150004BFF00283DD04FF4FA72254B1A601F4800
:10216000244901F031FD1F4B186800214FF0FF3268
:102170000B4600F0AFFC012829D11B481E49FFF790
:1021800029FC184B186800210A460B4600F0ECFBAE
:10219000012514261DE0FFF7F9FED0B1174A138878
:1021A0000133138068460221FFF77CFE9DF8003062
:1021B0002B2B02D02D2B05D00BE011480121FFF76E
:1021C0006BFF06E00E480021FFF766FF01E00125E6
:1021D000142601A8314601F04BFA8CE7580600207E
:1021E000305400086C0700200038014034540008C7
:1021F0004C0600204C5400085454000834010020C0
:102200003601002008B509484FF40051FEF71EFAC8
:10221000012805D105484FF40051FEF7A3FA08BD87
:1022200002484FF40051FEF76DFA08BD001001405E
:1022300010B50446FFF7E6FF206801F04DFAF9E714
:1022400000B583B000238DF8053002A82B2300F8D9
:10225000043D01210A46FFF761FE03B05DF804FB6F
:1022600030B583B001F016F9019000250E484FF407
:102270000061FEF78FF9044630B1854204D0FFF7C4
:10228000DFFF4FF4C87109E02CB1A54205D1FFF77B
:10229000D7FFC82102E0142100E0142101A801F0B9
:1022A000E7F92546E2E700BF000C01402DE9F043C5
:1022B00089B096229B4B1A609B4C20469B4901F0AB
:1022C00083FC4FF4FA732361FEF7BEFC4FF48030B9
:1022D000FEF7DAFCFEF7C4FE01281ED10020FEF74F
:1022E00079FD0020FEF7BAFD4FF48060FEF796FD01
:1022F0004FF480304FF4E011FEF7F4FC0120FEF7BC
:102300003DFD3920FEF774FE0028FAD00220FEF7CA
:1023100045FDFEF757FD0828FBD108200121FEF7F7
:102320001BFE44F205000121FEF716FE4FF40030BB
:102330000121FEF737FE10200121FEF70DFE2823B4
:102340008DF81F3002258DF81E5008AC4FF4006345
:1023500024F8043D76482146FEF77EF810238DF8D8
:102360001F308DF81E504FF40053ADF81C307148EB
:102370002146FEF771F8FFF71FFC2046FEF702F931
:1023800004238DF81F3003268DF81E604FF48163FF
:10239000ADF81C30684D28462146FEF75DF84FF435
:1023A0000173ADF81C3018238DF81F308DF81E60B6
:1023B00028462146FEF750F84FF4E13303930024FA
:1023C000ADF81040ADF81240ADF81440ADF818402B
:1023D0000C23ADF8163005F5405528460DEB0301EA
:1023E000FEF758FE28460121FEF72CFF534F3846D2
:1023F00003A9FEF74FFE38460121FEF723FF2846CA
:1024000040F225510122FEF751FF4FF44070FDF7D5
:10241000B7FF25238DF808304FF00F098DF809908C
:102420008DF80A4001258DF80B5002A8FDF7C8FF72
:10243000DFF83C812023C8F80430384640F22551AB
:102440002A46FEF733FF4FF44070FDF799FF26232D
:102450008DF808308DF809908DF80A408DF80B50F2
:1024600002A8FDF7ADFF4023C8F8043028462146F6
:10247000324600F05FFA324B186020B12146224606
:10248000234600F071FA01200021032200F052FAE5
:102490002C4B186020B100210A460B4600F064FA6C
:1024A00000F0F4FB002000F0E3FB1E20002100F010
:1024B000E3FC25482549012200F034FD00F0AAFB89
:1024C0000123009300230193214822498022154BC8
:1024D00000F076FF012821D101230093002301930E
:1024E0001D481E498022104B00F06AFF012815D1BB
:1024F000012300930023019319481A49802200F018
:102500005FFF01280AD1012300930023019316489D
:102510001649802200F054FF012800D0FEE700F0A9
:1025200081FFFEE74C06002058060020805400087A
:10253000000C014000100140000801400044004030
:102540006C070020500600208C5400083400002046
:102550003122000894540008FD1A00089C54000819
:1025600061220008A0540008D9200008A8540008DF
:1025700000E100E0FEE700BF10B582B00023019348
:10258000174840F22551FEF729FFB8B1144C2046F8
:1025900040F22551FEF7A0FF2046FEF7FDFEC4B233
:1025A00063B22B2B03D10F480121FFF775FD64B2F5
:1025B0002D2C03D10B480021FFF76EFD0A4B186844
:1025C00001A900F055FA019B3BB14FF08052074B37
:1025D0001A60BFF34F8FBFF36F8F02B010BD00BF03
:1025E00000380140360100206C07002004ED00E0B7
:1025F0004FF0BF0383F31188BFF36F8FBFF34F8F8B
:10260000FEE700BF06480068006880F3088862B6ED
:1026100061B6BFF34F8FBFF36F8F00DF00BF0000C5
:1026200008ED00E04FF0807340F8043C21F0010118
:1026300040F8081C034B40F80C3C40F8202C403874
:10264000704700BFF12500080000000000000000F6
:10265000074B19680868B0E8F00F80F30988BFF3EA
:102660006F8F4FF0000080F311884EF00D0E704711
:10267000C40500204FF0BF0383F31188BFF36F8FB1
:10268000BFF34F8F024A136801331360704700BFD6
:102690003C000020034A1368013B13600BB983F32D
:1026A000118870473C00002000000000000000007E
:1026B000EFF30980BFF36F8F0D4B1A6820E9F00F1D
:1026C00010602DE908404FF0BF0080F3118801F041
:1026D0001DF84FF0000080F31188BDE8084019682C
:1026E0000868B0E8F00F80F30988BFF36F8F704778
:1026F000C405002008B54FF0BF0383F31188BFF372
:102700006F8FBFF34F8F00F0CBFE18B14FF08052A8
:10271000024B1A60002383F3118808BD04ED00E02A
:10272000034A044B1A600722043B1A60704700BF3B
:102730003F19010014E000E008B5094B1A6842F4A3
:102740007F021A601A6842F07F421A60FFF7E8FFC2
:102750000022044B1A60FFF755FFFFF749FF00BF47
:1027600020ED00E03C00002010B50446FFF782FF9A
:10277000A26BE36B9A4201D1012400E00024FFF731
:1027800089FF204610BD00BF10B50446FFF772FF59
:10279000A36B0BB9012400E00024FFF77BFF204668
:1027A00010BD00BF70B504461646856B026C3AB981
:1027B000036843BB406801F0B7F80023636029E079
:1027C0006EB9806801F01EF9A268236C1344A360FF
:1027D0006268934219D32368A36000201AE0C0689E
:1027E00001F010F9236C5B42E2681A44E260216850
:1027F0008A4202D262681344E360022E07D145B1D7
:10280000013D002006E0002004E0002002E000205E
:1028100000E000200135A56370BD00BF026C72B1FD
:1028200010B5C3681344C3604468A34201D303686E
:10283000C36003460846D96801F0E4F810BD70474C
:1028400038B50546FFF716FF95F84540E4B20AE0B3
:102850006B6A5BB105F1240000F0A8FF08B101F03C
:1028600019F8013CE4B263B2002BF1DCFF2385F8D8
:102870004530FFF70FFFFFF7FDFE95F84440E4B247
:102880000AE02B695BB105F1100000F08FFF08B181
:1028900001F000F8013CE4B263B2002BF1DCFF234D
:1028A00085F84430FFF7F6FE38BD00BF38B5044662
:1028B0000D46FFF7DFFE2168E26B236C03FB02107D
:1028C00060600020A063A160013A02FB0313E36093
:1028D000FF2384F8443084F845307DB92369ABB1D7
:1028E00004F1100000F062FF80B14FF08052094BFC
:1028F0001A60BFF34F8FBFF36F8F07E004F1100032
:10290000FFF7B4F804F12400FFF7B0F8FFF7C2FEB8
:10291000012038BD04ED00E010B5029B0C4609B95A
:102920001B6000E01A60D8631C6418460121FFF7A1
:10293000BDFF10BDF0B583B0064617460D4611B178
:1029400001FB00F000E000204830FFF777F8044674
:1029500038B100903046294604F148023B46FFF763
:10296000DBFF204603B0F0BDF0B585B004460F464E
:1029700001921E460025FFF77DFEA26BE36B9A4293
:1029800001D3022E21D1204639463246FFF70AFFF5
:10299000636A6BB104F1240000F008FF88B14FF0C6
:1029A0008052324B1A60BFF34F8FBFF36F8F08E036
:1029B00038B14FF080522D4B1A60BFF34F8FBFF3E9
:1029C0006F8FFFF767FE01204EE0019B1BB9FFF7F9
:1029D00061FE002048E01DB902A800F023FF012598
:1029E000FFF758FE00F04EFDFFF744FE94F8443028
:1029F0005BB2B3F1FF3F02D1002384F8443094F876
:102A000045305BB2B3F1FF3F02D1002384F845307B
:102A1000FFF740FE02A801A900F010FFF0B9204620
:102A2000FFF7A2FEA0B104F11000019900F0B0FE82
:102A30002046FFF705FF00F0ABFD00289BD14FF0CB
:102A400080520A4B1A60BFF34F8FBFF36F8F92E72C
:102A50002046FFF7F5FE00F09BFD8CE72046FFF7D0
:102A6000EFFE00F095FD002005B0F0BD04ED00E0A4
:102A700038B5EFF311844FF0BF0383F31188BFF330
:102A80006F8FBFF34F8F836BC26B9A4217D990F849
:102A9000452001338363D3B2FF2A0AD1436A83B14D
:102AA0000D46243000F082FE68B175B10120286027
:102AB0000CE00133DBB280F84530012006E0002055
:102AC00004E0012002E0012000E0012084F31188ED
:102AD00038BD00BF2DE9F04184B00446884601921C
:102AE0001E460025FFF7C6FDA76B87B3E5682046A5
:102AF0004146FFF793FEB6B97B1EA363236813B963
:102B000000F042FF60602369EBB104F1100000F0B7
:102B10004DFEC0B14FF080523D4B1A60BFF34F8F56
:102B2000BFF36F8F0FE0E560636A63B104F12400C7
:102B300000F03CFE38B14FF08052354B1A60BFF3C5
:102B40004F8FBFF36F8FFFF7A5FD01205DE0019B65
:102B50001BB9FFF79FFD002057E01DB902A800F048
:102B600061FE0125FFF796FD00F08CFCFFF782FD6A
:102B700094F844305BB2B3F1FF3F02D1002384F8F4
:102B8000443094F845305BB2B3F1FF3F02D10023EB
:102B900084F84530FFF77EFD02A801A900F04EFE43
:102BA00038BB2046FFF7F0FDE8B1236833B9FFF7E3
:102BB00061FD606800F074FEFFF76CFD04F1240015
:102BC000019900F0E5FD2046FFF73AFE00F0E0FC39
:102BD000002887D14FF080520D4B1A60BFF34F8F02
:102BE000BFF36F8F7EE72046FFF72AFE00F0D0FC90
:102BF00078E72046FFF724FE00F0CAFC2046FFF7E6
:102C0000C3FD00283FF46EAF002004B0BDE8F081A2
:102C100004ED00E030B583B0002420E0124DA4F1B3
:102C20005003284678210022DBB200F077FA2846CC
:102C300078210022134600F071FA284678210022FC
:102C4000102300F06BFA802300932846782140225D
:102C5000064B03EBC41300F043FA0134E4B2072C33
:102C6000DCD903B030BD00BF005400403801002063
:102C700008B508B9002100E0FF2103484FF4806245
:102C800000F0CBFE08BD00BF3801002010B500F0F9
:102C900061F96248782100F055FA0346002800F0F7
:102CA000BA8040F6C41300E0013B002BFCD15B4C22
:102CB000204678210022AE2300F030FA2046782109
:102CC0000022202300F02AFA204678210022102337
:102CD00000F024FA204678210022B02300F01EFAEA
:102CE000204678210022C82300F018FA20467821D7
:102CF0000022134600F012FA204678210022102309
:102D000000F00CFA204678210022402300F006FA59
:102D1000204678210022812300F000FA2046782105
:102D20000022FF2300F0FAF9204678210022A12397
:102D300000F0F4F9204678210022A62300F0EEF9F5
:102D4000204678210022A82300F0E8F920467821C7
:102D500000223F2300F0E2F9204678210022A4233C
:102D600000F0DCF9204678210022D32300F0D6F9C8
:102D7000204678210022134600F0D0F92046782121
:102D80000022D52300F0CAF9204678210022F02342
:102D900000F0C4F9204678210022D92300F0BEF9C2
:102DA000204678210022222300F0B8F9204678211D
:102DB0000022DA2300F0B2F9204678210022122303
:102DC00000F0ACF9204678210022DB2300F0A6F9C0
:102DD000204678210022202300F0A0F92046782107
:102DE00000228D2300F09AF9204678210022142336
:102DF00000F094F9204678210022AF2300F08EF9EC
:102E00000020FFF735FFFFF705FF054A0023138079
:102E1000538001235371184610BD00BF0054004079
:102E2000380500207F2821D83F291FD8104B1B7957
:102E300013B1B2FA82F25209012A0BD1CB0800EB8E
:102E4000C31001F0070101238B400A4A115C0B43B8
:102E500013547047CB0800EBC31001F007010123A6
:102E60008B4004490A5C22EA03030B54704700BFFD
:102E70003805002038010020014B18805980704728
:102E8000380500202DE9F843254B1C880B78234496
:102E90007F2B3FDC224B5C884B7823443F2B3CDC70
:102EA00090460E468146002529E07168A9F120036D
:102EB00002FB035331F8137000241CE007FA04F3FB
:102EC00013F4004F0AD0164B18885988204429441F
:102ED00080B289B24246FFF7A5FF0BE0104B18887D
:102EE00059882044294480B289B2B8FA88F252093C
:102EF000FFF798FF01343378A342DFD801357278A9
:102F0000AA42D2D83178064A13880B441380484627
:102F1000BDE8F8830020BDE8F8830020BDE8F88311
:102F20003805002070B504460E4615460BE058B231
:102F300031462A46FFF7A6FF23785AB2904201D0C5
:102F4000DBB204E001342378002BF0D1DBB258B2BD
:102F500070BD00BF10B586B04FF400100121FEF720
:102F600021F808200121FDF7F7FF154B01930023FD
:102F7000ADF808304BF6FF72ADF80A201522ADF817
:102F80000C20ADF80E304FF48043ADF810300D4CEE
:102F9000204601A9FDF7FEFCC023ADF814301C2328
:102FA0008DF8173003238DF81630074805A9FDF773
:102FB00053FA20460121FDF7A7FD06B010BD00BF62
:102FC000801A060000540040000C014038B5048807
:102FD000A4B244F48074048044F62065224C256039
:102FE00005E0214D2C68013C2C60002C36D0848AF1
:102FF00014F0010FF5D023B103889BB243F4806332
:10300000038092B901F0FE03038244F62064164B5C
:103010001C6004E0144C2368013B236003B3838AE3
:1030200003F002039BB2002BF4D00446012A12D114
:1030300041F00101018244F620620B4B1A6004E06A
:10304000094A1368013B136063B120460749FDF745
:1030500083FD0028F4D0238B002038BD012038BD2B
:10306000012038BD012038BD4005002002000300CA
:1030700044F62062084B1A6002E0013B064A1360E6
:10308000838A03F080039BB21BB9034B1B68002BA0
:10309000F3D189B2018270474005002044F62062D6
:1030A0000E4B1A6004E00D4A1368013B136093B1A4
:1030B000838A03F080039BB2002BF4D0838A03F051
:1030C00004039BB2002BEED003889BB243F4007341
:1030D0000380002070470120704700BF400500209A
:1030E000F8B5054614461F46BDF818600022134681
:1030F000FFF76CFF28462146FFF7BAFF002405E0E2
:103100002846395DFFF7B4FF0134E4B2A3B2B342FD
:10311000F6D32846FFF7C2FFF8BD00BF70B50446DE
:1031200016461D4600221346FFF750FF2046314643
:10313000FFF79EFF20462946FFF79AFF2046FFF73C
:10314000ADFF70BD38B5054600220123FFF73EFFF5
:1031500008B1002400E001242846FFF79FFF204625
:1031600038BD00BF0A4B1B681B680BB9012300E088
:10317000002323B14FF0FF32064B1A607047044B17
:103180001B68DB68DB685A68024B1A60704700BF37
:1031900044050020E40500202DE9F04781469846CB
:1031A000089D099F0A9C236B02F18042013A03EBC0
:1031B000820626F00706002306E0C85CE21882F8C3
:1031C0003400CA5C12B101330F2BF6D9002384F806
:1031D0004330042D00D90425E56265644FF0000AF0
:1031E000C4F848A0201DFEF74DFC04F11800FEF7BE
:1031F00049FC2461C5F10505A5616462C4F84CA0D1
:1032000084F850A0304649464246FFF70BFA20604A
:1032100007B13C60BDE8F08738B5002407E004EB57
:1032200084039B000C481844FEF720FC0134042C56
:10323000F5D90A4D2846FEF719FC094C2046FEF741
:1032400015FC0848FEF712FC0748FEF70FFC074B79
:103250001D60074B1C6038BD58050020EC050020A0
:1032600000060020C80500201406002044050020A8
:103270005005002010B50446FFF7FCF9204A1368FA
:10328000013313601F4B1B683BB91E4B1C60136856
:10329000012B0DD1FFF7C0FF0AE01B4B1B683BB9A8
:1032A000184B1B68DA6AE36A9A4201D8154B1C6016
:1032B000164A136801331360E06A154B1B68984285
:1032C00001D9134B186000EB80008000114B1844AB
:1032D000211DFEF7DBFBFFF7DDF90B4B1B686BB124
:1032E000084B1B68DA6AE36A9A4207D24FF08052B1
:1032F000094B1A60BFF34F8FBFF36F8F10BD00BF34
:10330000C0050020C405002048050020E805002075
:10331000280600205805002004ED00E070B50446A2
:103320000E46174B1D68174B18680430FEF7D4FB88
:10333000B4F1FF3F07D136B1124B1968124804317E
:10334000FEF7A4FB70BD2C440E4B1B685C60AC42C6
:1033500007D20E4B18680B4B19680431FEF7A2FB1D
:1033600070BD0B4B1868074B19680431FEF79AFBC8
:10337000084B1B689C4201D2064B1C6070BD00BF0D
:10338000E0050020C40500201406002050050020A0
:1033900044050020E405002008B5074B1B68012BFD
:1033A00007D94FF08052054B1A60BFF34F8FBFF320
:1033B0006F8FFFF7DFF8F0E75805002004ED00E01D
:1033C0002DE9F04385B080460F4615461E46900015
:1033D000FEF734FB60B181465420FEF72FFB044614
:1033E00010B1C0F8309004E04846FEF733FB00E02F
:1033F00000248CB10C9B00930D9B0193029400233D
:103400000393404639462A463346FFF7C5FE204619
:10341000FFF730FF012001E04FF0FF3005B0BDE8BD
:10342000F08300BF00B583B0002300930F4A0192E0
:103430000F4810498022FFF7C3FF012813D14FF036
:10344000BF0383F31188BFF36F8FBFF34F8F4FF02C
:10345000FF32094B1A600122084B1A600022084B08
:103460001A60FFF769F903B05DF804FBDC05002082
:1034700099330008C0540008E405002048050020E6
:10348000E0050020024A136801331360704700BF53
:10349000BC050020014B1868704700BFE005002004
:1034A000F8B5304B1B68002B50D12F4B1E680136EE
:1034B0001E605EB92D4A11682D4B186810601960A6
:1034C0002C4A136801331360FFF74CFE2A4B1B682C
:1034D0009E4203D200273EE0012700E00027234B55
:1034E0001B681B680BB9012300E0002323B14FF0D8
:1034F000FF32214B1A602EE01C4B1B68DB68DC6836
:1035000063689E4202D21C4A136024E0251D2846AF
:10351000FEF7E2FAA36A1BB104F11800FEF7DCFA29
:10352000E06A164B1B68984201D9144B186000EBF7
:1035300080008000124B18442946FEF7A7FAE26A81
:10354000104B1B68DB6A9A42C6D2C8E70E4A136862
:103550000133136000270D4B1B6803B10127384668
:10356000F8BD00BFBC050020E00500204405002098
:10357000500500204C050020E4050020280600200E
:1035800058050020C4050020540500202C0600200A
:1035900038B5FFF76FF82D4B1A68013A1A601B68AF
:1035A000002B4BD12A4B1B682BBB002449E0294B35
:1035B000DB68DC6804F11800FEF78EFA251D28464A
:1035C000FEF78AFAE06A244B1B68984201D9224B25
:1035D000186000EB80008000204B18442946FEF75D
:1035E00055FAE26A1E4B1B68DB6A9A4204D3012239
:1035F0001C4B1A6000E00024164B1B68002BD6D130
:103600000CB1FFF7AFFD184B1C6854B1FFF748FF32
:1036100010B10122134B1A60013CF7D10022124B6A
:103620001A60104B1B685BB14FF080520F4B1A6051
:10363000BFF34F8FBFF36F8F012402E0002400E03F
:103640000024FFF727F8204638BD00BFBC05002046
:10365000C0050020C80500202806002058050020CD
:10366000C40500202C0600205405002004ED00E0D5
:1036700038B505460C46FFF705FF154B18682B6853
:103680001919984205D28B4209D9814209D80023E1
:103690000CE08B4207D8814207D8002306E00023C4
:1036A00004E0012302E0012300E0012329601BB1B3
:1036B000081A0021FFF732FEFFF76AFF38B94FF012
:1036C0008052044B1A60BFF34F8FBFF36F8F38BD2A
:1036D000E005002004ED00E010B548B10446FFF716
:1036E000D1FE20460021FFF719FEFFF751FF00E051
:1036F000002038B94FF08052034B1A60BFF34F8F50
:10370000BFF36F8F10BD00BF04ED00E01B4B1B68C3
:103710001BB101221A4B1A6070470022184B1A6025
:10372000184B1B6800E0013B03EB83029200164933
:103730008A58002AF7D010B40C469A00D118890094
:1037400021444868406848601A4492000832224484
:10375000904205D1416803EB8302920022445160FC
:1037600003EB8302920008490A445268D168074A71
:103770001160044A13605DF8044B7047BC050020DB
:103780002C0600202806002058050020C405002033
:1037900010B50C46044B19681831FEF783F9204622
:1037A0000121FFF7BBFD10BDC405002038B5C3687B
:1037B000DC6804F118052846FEF78EF9134B1B68E8
:1037C0009BB9251D2846FEF787F9E06A104B1B6858
:1037D000984201D90E4B186000EB800080000D4B21
:1037E00018442946FEF752F903E00B482946FEF734
:1037F0004DF9E26A094B1B68DB6A9A4203D9012042
:10380000074B186038BD002038BD00BFBC05002044
:103810002806002058050020C8050020C405002007
:103820002C060020034B1B680360034B1B6843609E
:10383000704700BF4C050020E005002038B5044665
:103840000D46FEF717FF114B1A682B68B3F1FF3FC7
:1038500013D020680E490968884202D061689142FD
:103860000DD96168501A83420BD98A1A13442B6010
:103870002046FFF7D7FF002404E0002402E00124E3
:1038800000E00124FEF706FF204638BDE0050020D9
:103890004C0500200122014B1A6070472C060020C5
:1038A00000283AD038B50346C16A1C4A1268D26A69
:1038B000914231D28269002A05DB184A1268D26A25
:1038C000C2F1050282615969DA6A02EB8202920052
:1038D00013480244914201D1012200E00022BAB112
:1038E0001D461C1D2046FEF7F7F80C4B1B68D86AD6
:1038F000E8620C4B1B68984201D90A4B186000EB38
:1039000080008000064B18442146FEF7BFF838BD02
:10391000024A1268D26ADA6238BD7047C4050020D4
:10392000580500202806002018B338B50346826CDD
:10393000013A8264C06A596C88421CD0EAB91C46BC
:103940001D1D2846FEF7C8F8606CE062C0F1050353
:10395000A3610B4B1B68984201D9094B186000EB1F
:1039600080008000074B18442946FEF78FF801209D
:1039700038BD00207047002038BD002038BD00BF92
:103980002806002058050020054B1B6823B1044B76
:103990001A68936C01339364014B1868704700BF39
:1039A000C4050020014B1868704700BFA00000202C
:1039B000931E222B10B50C4602D90020087010BDB2
:1039C0000A2A06D1002804DA2D230B704042012177
:1039D00000E00021214400F01FF9204610BDFFF750
:1039E000E7BF0000024B0146186800F063B800BF53
:1039F000A0000020024B0146186800F017B800BF75
:103A0000A000002010B5431E0A44914204D011F8D2
:103A1000014B03F8014FF8E710BD034602449342FF
:103A200002D003F8011BFAE77047000030B5002907
:103A30003CD051F8042C0B1F1D49002AB8BF9B181D
:103A40000A680C4612B95A600B6030BD93420DD221
:103A500019685818904201BF5A5852181A604268A3
:103A600023605A6030BD994203D80A465168002944
:103A7000F9D1146815199D420AD11B682344D01846
:103A80008842136012D10868034413604B680CE04D
:103A900002D90C23036030BD1C681819884201BF8D
:103AA00008684968001918605960536030BD00BF4C
:103AB0003406002070B5CC1C24F0030408340C2C10
:103AC00038BF0C24002C064603DA0C233360002098
:103AD00070BD8C42F9D3204A136810461946A1B133
:103AE0000A68121B0ED40B2A03D90A608B188C505B
:103AF0001FE08B420BBF5A684A6802605A6018BFC9
:103B00000B4616E00B464968E9E7144D2B681BB9D4
:103B1000304600F025F828603046214600F020F8B5
:103B2000421C0346D1D0C51C25F0030585420AD1AD
:103B30001C6003F10B001A1D20F00700821A0AD046
:103B40005142995070BD3046E91A00F009F8013031
:103B5000BBD02B46ECE770BD3406002030060020B9
:103B600038B5064C0023054608462360FDF710FDD6
:103B7000431C02D1236803B12B6038BD38060020F6
:103B80000EB400B54FF402719CB0ADF814106FF094
:103B90000041049107914FF6FF711DABADF816106F
:103BA000084953F8042B02900690086802A9019373
:103BB00000F002F9029B00221A701CB05DF804EBC1
:103BC00003B07047A0000020034611F8012B03F852
:103BD000012B002AF9D17047034613F8012B002A64
:103BE000FBD1181A0138704730B5037823B90B7828
:103BF000002B18BF002030BD03461A7801303AB1BF
:103C000000228C5C34B19D5CA542F5D10132F8E70D
:103C1000104630BD184630BDF0B58BB003460F4698
:103C20006D461A4C04F1200E2E4620686168083457
:103C300003C674453546F7D1217920683171911E4C
:103C4000222930604FF0000001D938701CE07D1E41
:103C5000B3FBF2F402FB14330AAE334413F8283CEE
:103C6000411C05F8013F23460CB10846F0E77C549F
:103C70003A18C11A8B4206DAF95C1478FC5402F83F
:103C800001190133F5E738460BB0F0BDCA540008FE
:103C900030B5141E9BB0054604DA8B2303604FF049
:103CA000FF301CE04FF40272ADF80C200CBF22462E
:103CB00004F1FF32029205924FF6FF7200910491D7
:103CC000ADF80E2069461A461E9B00F075F8431C9D
:103CD000BCBF8B232B6014B1009B00221A701BB059
:103CE00030BD000073B506460D4614460093044BE4
:103CF000314618682A462346FFF7CAFF02B070BD56
:103D0000A00000202DE9F0478E688246B3420C46A1
:103D10009046994640D38A8912F4906F3AD025682C
:103D2000096902236F1A656905EB450595FBF3F5F3
:103D30007B1C4B449D4238BF1D4653050FD5294679
:103D4000FFF7B8FE064698B121693A46FFF75AFEDA
:103D5000A38923F4906343F08003A38113E02A46F0
:103D600000F0DBFA064670B950462169FFF75EFEA7
:103D70000C23CAF80030A3894FF0FF3043F0400312
:103D8000A381BDE8F08726613E4426604E4665610A
:103D9000ED1BA560B14500D24E4632462068414633
:103DA00000F0A0FAA36800209B1BA36023681E44B8
:103DB0002660BDE8F08700002DE9F0439DB0039335
:103DC0008B8906461C060D4690460CD50B6953B9E7
:103DD0004021FFF76FFE2860286110B90C23336083
:103DE000CCE040236B610023099320238DF8293018
:103DF00030238DF82A3043461C4613F8012B1AB99C
:103E0000B4EB08090FD002E0252AF5D1F8E73046D7
:103E1000294642464B46FFF775FF013000F0A98066
:103E2000099B4B4409932378002B00F0A2800023C8
:103E30004FF0FF3204930793059206938DF85330A9
:103E40001A9304F101084446DFF848912178484666
:103E5000052200F039FA08F10108049B30B1C9EBE2
:103E600000000122824013430493ECE7D80644BFCC
:103E700020228DF85320190744BF2B228DF85320A0
:103E800022782A2A02D0079923460EE0039A0134A9
:103E9000111D12680391002ABBBF524243F0020376
:103EA00007920792B8BF04930AE01C4622780133B8
:103EB000303A092A03D80A2000FB0121F5E70791CF
:103EC00023782E2B1AD163782A2B0AD1039B023434
:103ED0001A1D1B680392002BB8BF4FF0FF330593E8
:103EE0000CE0611C00220C4623780131303B092B89
:103EF00003D80A2000FB0232F5E70592DFF898802C
:103F000021784046032200F0DFF938B1049AC8EB6B
:103F100000004023834013430493013421781A485E
:103F2000062204F101088DF8281000F0CDF988B1BF
:103F3000164B33B9039B073323F00703083303936E
:103F400013E003AB0093304604A92A46104BAFF3AD
:103F5000008007E003AB0093304604A92A460C4BCF
:103F600000F092F8421C074603D0099B3B4409939A
:103F700041E7AB895B0601D4099801E04FF0FF30BF
:103F80001DB0BDE8F08300BFF95400080000000038
:103F9000053D0008EF540008F55400082DE9F843EA
:103FA00091461F468A680B6906469342B8BF13467E
:103FB000C9F8003091F843200C46DDF8208012B19A
:103FC0000133C9F800302368990642BFD9F80030A0
:103FD0000233C9F80030256815F006051CD094F8A6
:103FE00043302268003318BF012392061FD5E11821
:103FF000302081F843005A1C94F8451022440233C3
:1040000082F8431013E03046394604F119020123C7
:10401000C047013007D00135E368D9F800209B1A6A
:104020009D42F0DBDBE74FF0FF30BDE8F883304620
:10403000394604F14302C0470130F4D02268D9F870
:104040000050E36802F00602042A08BF5D1B2269E3
:10405000A3680CBF25EAE57500259342C4BF9B1AEF
:10406000ED184FF00009A9450ADA3046394604F147
:104070001A020123C0470130D5D009F10109F2E746
:104080000020BDE8F88300002DE9FF410C461746EB
:10409000227E98466E2A06460A9B01F1430100F0F3
:1040A000B08012D8632A23D00AD8002A00F0BD803D
:1040B000582A40F0CC8084F84520DFF804E257E02D
:1040C000642A1ED0692A1CD0C1E0732A00F0B18096
:1040D00009D86F2A2ED0702A40F0B980226842F0A9
:1040E000200222603FE0752A24D0782A3BD0AEE03F
:1040F0001A6804F14205111D1960136884F84230F2
:10410000A9E020681A6810F0800F02D0101D186016
:1041100008E010F0400F02F10400186002D0B2F97C
:10412000003000E01368002B3EDA2D225B4284F859
:10413000432039E020681A6810F0800F02D0101D6B
:10414000186007E010F0400F02F10400186001D081
:10415000138800E01368227EDFF864E16F2A0CBF49
:1041600008220A221CE07822DFF858E184F8452072
:104170002268186812F0800F00F104051D6003D159
:10418000550601D5038800E00368D00744BF42F01C
:10419000200222601BB9226822F020022260102235
:1041A000002084F8430002E0DFF814E10A22656889
:1041B000002DA8BF2068A560A4BF20F004002060E7
:1041C00003B965B10D46B3FBF2F002FB10331EF8E4
:1041D000033005F8013D03460028F4D100E00D4608
:1041E000082A0BD12368DA0708D5236962689A4246
:1041F000DEBF302305F8013C05F1FF35491B216185
:104200002EE025681A6815F0800F606903D0151D2F
:104210001D60136808E015F0400F02F104051D60F1
:10422000136801D0188000E01860002323610D4658
:1042300016E01A68111D1960156800212846626889
:1042400000F042F808B1401B6060636804E004F1CC
:10425000420584F8422001232361002384F843307F
:10426000CDF800803046214603AA3B46FFF796FE74
:10427000013002D14FF0FF301FE0304639462A4668
:104280002369C0470130F5D023689B0705D4E06857
:10429000039B9842B8BF18460FE00025E368039AD5
:1042A0009B1A9D42F3DA3046394604F11902012384
:1042B000C0470130DED00135F0E704B0BDE8F08141
:1042C000005500081155000810B5C9B202449042CB
:1042D000034605D01C7801308C42F8D1184610BD39
:1042E000002010BD814210B501EB020301D3421E34
:1042F0000BE09842FBD28118D21AD34204D013F8B3
:10430000014D01F8014DF8E710BD994204D011F8B4
:10431000014B02F8014FF8E710BDF8B50746154606
:104320000E4621B91146BDE8F840FFF7C3BB1AB9E4
:10433000FFF77CFB2846F8BD00F015F8A8420ED226
:1043400038462946FFF7B6FB044650B131462A46A7
:10435000FFF758FB38463146FFF768FB01E030466F
:10436000F8BD2046F8BD51F8040C0028BEBF09185E
:1043700051F8043CC0180438704700002E2E2F73EB
:10438000797374656D2F7372632F73746D33326636
:10439000312D7374647065726970682F6D69736311
:1043A0002E6300002E2E2F73797374656D2F737238
:1043B000632F73746D333266312D7374647065725C
:1043C0006970682F73746D3332663130785F67704F
:1043D000696F2E63000000002E2E2F7379737465B1
:1043E0006D2F7372632F73746D333266312D737456
:1043F000647065726970682F73746D333266313022
:10440000785F6932632E63002E2E2F737973746583
:104410006D2F7372632F73746D333266312D737425
:10442000647065726970682F73746D3332663130F1
:10443000785F7263632E63002E2E2F737973746519
:104440006D2F7372632F73746D333266312D7374F5
:10445000647065726970682F73746D3332663130C1
:10446000785F75736172742E6300000061626F7211
:104470007428292C2065786974696E672E2E2E00A9
:104480002C2066756E6374696F6E3A200000000020
:10449000617373657274696F6E20222573222066C2
:1044A00061696C65643A2066696C65202225732217
:1044B0002C206C696E65202564257325730A000025
:1044C0006173736572745F706172616D2829206613
:1044D00061696C65643A2066696C652022257322E7
:1044E0002C206C696E652025640A00006D61696E80
:1044F00028617267633D25642C20617267763D5B9D
:10450000000000002C200000222573220000000083
:104510005D293B0A00000000537461636B206672E2
:10452000616D653A0A000000205230203D202025B0
:104530003038580A00000000205231203D2020254C
:104540003038580A00000000205232203D2020253B
:104550003038580A00000000205233203D2020252A
:104560003038580A0000000020523132203D20250A
:104570003038580A00000000204C52203D202025F1
:104580003038580A00000000205043203D202025EC
:104590003038580A0000000020505352203D20259A
:1045A0003038580A000000004653522F4641523A14
:1045B0000A0000002043465352203D202025303879
:1045C000580A00002048465352203D20202530380C
:1045D000580A00002044465352203D202025303800
:1045E000580A00002041465352203D2020253038F3
:1045F000580A0000204D4D464152203D20253038BC
:10460000580A00002042464152203D2020253038E3
:10461000580A00004D6973630A000000204C522FB5
:104620004558435F52455455524E3D202530385829
:104630000A0000005B486172644661756C745D0A33
:10464000000000005B4275734661756C745D0A0082
:104650005B55736167654661756C745D0A000000A7
:10466000000000000000000000000000000000004A
:10467000000000000000000000000000000000003A
:10468000000000000000000C000C000C000C000CEE
:10469000000C000C000C000C000C000C0000000CC6
:1046A000000C0000000000000000001B001B001BAD
:1046B000001B001B000000000000000000000000C4
:1046C0000000000000000000000000000000801951
:1046D000801980198019C07FC07F80190033C07F86
:1046E000C07F0033003300330033000000000000BF
:1046F0000000001E003F807580650074003C001EB5
:1047000000078005806580658075003F001E0004FD
:10471000000400000000007000D840D8C0D880D944
:1047200000730006000C801BC036C066C046C00681
:1047300080030000000000000000001E003F003366
:1047400000330033001E000CC03CC06680638061F3
:104750008063C03E801C0000000000000000000CD0
:10476000000C000C000C000C000000000000000019
:104770000000000000000000000000000000000039
:10478000800000010003000600060004000C000C7D
:10479000000C000C000C000C0004000600060003D6
:1047A00000018000002000100018000C000C000424
:1047B0000006000600060006000600060004000CC5
:1047C000000C0018001000200000000C002D003F1D
:1047D000001E003300000000000000000000000088
:1047E00000000000000000000000000000000000C9
:1047F0000000000C000C000C000CC0FFC0FF000CFF
:10480000000C000C000C0000000000000000000084
:104810000000000000000000000000000000000098
:1048200000000000000000000000000C000C00046C
:10483000000400080000000000000000000000006C
:10484000000000000000001E001E0000000000002C
:104850000000000000000000000000000000000058
:104860000000000000000000000000000000000048
:104870000000000C000C000000000000000000031D
:10488000000300030006000600060006000C000CF2
:10489000000C000C001800180018000000000000B8
:1048A0000000001E003F0033806180618061806DE8
:1048B000806D8061806180610033003F001E0000D8
:1048C0000000000000000006000E001E003600265A
:1048D00000060006000600060006000600060006A8
:1048E00000060000000000000000001E003F807372
:1048F00080618061800100030006000C0018003018
:104900000060807F807F0000000000000000001C2D
:10491000003E006300630003000E000E00038001F0
:10492000800180618073003F001E000000000000D5
:1049300000000006000E000E001E001E00160036CD
:1049400000360066807F807F0006000600060000BB
:10495000000000000000007F007F00600060006039
:10496000006E007F80638001800180618073003F62
:10497000001E0000000000000000001E003F803309
:1049800080610060006E007F807380618061806163
:104990008033003F001E0000000000000000807F08
:1049A000807F80010003000300060006000C000C5D
:1049B000000C00080018001800180000000000009B
:1049C0000000001E003F8063806180610021001EA6
:1049D000003F8061806180618061003F001E0000B7
:1049E000000000000000001E003F00738061806135
:1049F00080618073803F801D800180610073003F73
:104A0000001E000000000000000000000000000088
:104A10000000000C000C000000000000000000007E
:104A20000000000C000C000000000000000000006E
:104A30000000000000000000000C000C000000005E
:104A4000000000000000000C000C0004000400083E
:104A5000000000000000000080008003000E00380D
:104A600000600038000E800380000000000000009D
:104A70000000000000000000000000000000807F37
:104A8000807F00000000807F807F00000000000029
:104A90000000000000000000000000000000000016
:104AA00000400070001C000780010007001C00701F
:104AB0000040000000000000000000000000001F97
:104AC000803FC071C060C000C00180030007000EBD
:104AD000000C000C0000000C000C000000000000A6
:104AE0000000001E003F803180718063806F806D08
:104AF000806D806F806700600032003E001C000007
:104B0000000000000000000E000E001B001B001B38
:104B1000001B80318031803F803F8031C060C060A9
:104B2000C0600000000000000000007C007E006308
:104B3000006300630063007E007E0063806180612B
:104B40008063007F007E0000000000000000001E67
:104B5000003F8031806100600060006000600060A4
:104B6000006080618031003F001E000000000000F6
:104B70000000007C007F0063806380618061806151
:104B800080618061806100630063007E007C0000C2
:104B9000000000000000807F807F006000600060F7
:104BA0000060007F007F0060006000600060807F28
:104BB000807F0000000000000000807F807F006098
:104BC000006000600060007F007F006000600060A7
:104BD0000060006000600000000000000000001E97
:104BE000003F80318061006000600060806380630E
:104BF000806180618031803F001E00000000000065
:104C00000000806180618061806180618061807F5F
:104C1000807F80618061806180618061806100004F
:104C2000000000000000003F003F000C000C000CE2
:104C3000000C000C000C000C000C000C000C003FE1
:104C4000003F0000000000000000800180018001A2
:104C5000800180018001800180018001806180618C
:104C60008073003F001E0000000000000000C060D4
:104C70008061006300660066006C0078007C00665E
:104C80000066006380618061C06000000000000079
:104C90000000006000600060006000600060006074
:104CA00000600060006000600060807F807F000026
:104CB000000000000000C071C071C07BC07AC06AF3
:104CC000C06AC06EC064C060C060C060C060C060C8
:104CD000C0600000000000000000807180718079D9
:104CE00080798079806D806D806D80658067806758
:104CF0008067806380630000000000000000001EE9
:104D0000003F0033806180618061806180618061EB
:104D1000806180610033003F001E00000000000041
:104D20000000007E007F806380618061806180631D
:104D3000007F007E00600060006000600060000096
:104D4000000000000000001E003F00338061806111
:104D50008061806180618061806580670033803F11
:104D6000401E0000000000000000007E007F806305
:104D7000806180618063007F007E00660063006365
:104D800080618061C0600000000000000000000E33
:104D9000001F8031803100300038001E0007800382
:104DA000806180618031003F001E00000000000033
:104DB0000000C0FFC0FF000C000C000C000C000C39
:104DC000000C000C000C000C000C000C000C00008F
:104DD000000000000000806180618061806180616E
:104DE0008061806180618061806180618073003F4B
:104DF000001E0000000000000000C060C060C06035
:104E0000803180318031001B001B001B001B000E15
:104E1000000E000E00040000000000000000C0C0F2
:104E2000C0C0C0C0C0C0C0C0C0CC804C804C805E80
:104E30008052805280738061806100000000000019
:104E40000000C0C0806080610033003B001E000C89
:104E5000000C001E001F003B80718061C0C000007C
:104E6000000000000000C0C080618061003300339A
:104E7000001E001E000C000C000C000C000C000CAE
:104E8000000C0000000000000000803F803F800117
:104E9000000300030006000C000C0018001800308E
:104EA0000060807F807F000000000000000F000F86
:104EB000000C000C000C000C000C000C000C000C92
:104EC000000C000C000C000C000C000C000F000F7C
:104ED0000000001800180018000C000C000C000C5A
:104EE00000060006000600060003000300030000A1
:104EF00000000000001E001E00060006000600065E
:104F00000006000600060006000600060006000671
:104F100000060006001E001E0000000C000C001E13
:104F20000012003300338061806100000000000047
:104F30000000000000000000000000000000000071
:104F40000000000000000000000000000000000061
:104F5000000000000000000000000000E0FF000072
:104F6000000000380018000C0000000000000000E5
:104F70000000000000000000000000000000000031
:104F80000000000000000000000000000000001F02
:104F9000803F80618001801F803F80618063807FCF
:104FA000C0380000000000000000006000600060E9
:104FB0000060006E007F807380618061806180612D
:104FC0008073007F006E0000000000000000000001
:104FD000000000000000001E003F80738061006040
:104FE000006080618073003F001E00000000000030
:104FF00000008001800180018001801D803F80735E
:1050000080618061806180618073803F801D0000CD
:105010000000000000000000000000000000001E72
:10502000003F00738061807F807F00608071003F5F
:10503000001E0000000000000000C007C00F000CB0
:10504000000C807F807F000C000C000C000C000C1A
:10505000000C000C000C000000000000000000002C
:1050600000000000801D803F80738061806180614E
:1050700080618073803F801D80018063007F003EDF
:1050800000000060006000600060006F807F807141
:1050900080618061806180618061806180610000E9
:1050A0000000000000000006000600000000003EB6
:1050B000003E000600060006000600060006000688
:1050C00000060000000000000006000600000000CE
:1050D000003E003E00060006000600060006000630
:1050E0000006000600060046007E003C000000604E
:1050F000006000600060806100630066006C007CFE
:105100000076006300638061C06000000000000062
:105110000000003E003E00060006000600060006F5
:105120000006000600060006000600060006000055
:10513000000000000000000000000000000080DD12
:10514000C0FFC0CEC0CCC0CCC0CCC0CCC0CCC0CCCA
:10515000C0CC0000000000000000000000000000C3
:105160000000006F807F807180618061806180615C
:10517000806180618061000000000000000000008C
:10518000000000000000001E003F8073806180610D
:10519000806180618073003F001E000000000000FD
:1051A0000000000000000000006E007F807380613E
:1051B0008061806180618073007F006E00600060AC
:1051C000006000600000000000000000801D803FC3
:1051D000807380618061806180618073803F801D09
:1051E00080018001800180010000000000000000BB
:1051F00000000067803F0039003000300030003090
:10520000003000300030000000000000000000000E
:10521000000000000000001E803F80610060007FF1
:10522000803F80018061007F001E000000000000C0
:1052300000000000000800180018007F007F001820
:1052400000180018001800180018801F800F0000B8
:10525000000000000000000000000000000080616D
:105260008061806180618061806180618063807F16
:10527000803D000000000000000000000000000071
:105280000000C060803180318031001B001B001B9A
:10529000000E000E000600000000000000000000EC
:1052A00000000000000080DD80DD80DD005500553D
:1052B0000055007700770022002200000000000067
:1052C0000000000000000000000080610033003397
:1052D000001E000C000C001E003300338061000033
:1052E00000000000000000000000000080618061FC
:1052F000803100330033001B001B001B000E000E2A
:10530000000E001C007C0070000000000000000087
:105310000000C07FC07F800100030006000C001861
:105320000030C07FC07F00000000000080038007C5
:1053300000060006000600060006000E001C001C09
:10534000000E000600060006000600068007800327
:10535000000600060006000600060006000600061D
:10536000000600060006000600060006000600060D
:10537000000600060038003C000C000C000C000C7D
:10538000000C000E00070007000E000C000C000CC3
:10539000000C000C003C0038000000000000000081
:1053A0000000000000008038807F004700000000FF
:1053B0000000000000000000000000002B434950E6
:1053C00053455256455200002B43574D4F4445001C
:1053D0004F4B0D0A000000002B4950442C000000E8
:1053E0002B4349504D55580020000000543A2000EE
:1053F000415400003F0000003D0000002564000013
:105400003D2200002200000022544350222C0000C4
:10541000414C52454144590025642C25640000004C
:1054200053454E44204F4B002B4950442C00000064
:105430004150000045535020636F6E666967757276
:10544000656420617320415000000000536572764E
:10545000657200005365727665722069732072650B
:1054600061647920666F7220696E636F6D696E6723
:1054700020636F6E6E656374696F6E730000000069
:1054800020576169742E2E2E0000000048656C6C58
:105490006F000000426C696E6B6572004C43440003
:1054A000427574746F6E0000455350004552524F60
:1054B000520D0A002B43495053454E440000000052
:1054C00049444C450000000043003031323334354C
:1054D000363738396162636465666768696A6B6C20
:1054E0006D6E6F707172737475767778797A002348
:1054F0002D302B2000686C4C0065666745464700E0
:1055000030313233343536373839414243444546F9
:10551000003031323334353637383961626364658F
:02552000660023
:105524007856341202040608000000000102030445
:105534000102030406070809B0000020000000006F
:10554400000000000000000001020304060708092F
:1055540000A24A040B12000060460008AAAAAAAAE4
:105564000000000000000000000000000000000037
:105574000000000000000000000000000000000027
:10558400C8540008000000000000000000000000F3
:105594000000000000000000000000000000000007
:1055A40000000000000000000000000000000000F7
:1055B40000000000000000000000000000000000E7
:0855C4004000002032547698EB
:040000050800010DE1
:00000001FF
