:020000040800F2
:100000000050002021020008290200082D020008EB
:10001000A1020008A5020008ED020008000000008F
:10002000000000000000000000000000C1230008E4
:10003000390300080000000021240008652400089E
:100040005103000851030008510300085103000840
:100050005103000851030008510300085103000830
:100060005103000851030008510300085103000820
:100070005103000851030008510300085103000810
:100080005103000851030008510300085103000800
:1000900051030008510300085103000851030008F0
:1000A00051030008510300085103000851030008E0
:1000B00051030008510300085103000851030008D0
:1000C00051030008510300085103000851030008C0
:1000D00051030008E9220008851D000851030008AB
:1000E00051030008510300085103000800000000FC
:1000F0000000000000000000000000000000000000
:1001000000000000000000005FF808F100B583B0B7
:1001100001F07AF9304B314A1360314A1360314BA8
:10012000314A03E011681960043304322F498B42CD
:10013000F8D32A4B1A682E4B9A4204D1284B1A68DE
:100140002C4B9A4200D0FEE7234B2B4A13602B4ADC
:1001500013602B4B02E000221A600433294A9342B9
:10016000F9D3254B1B6813B9244B1B6803B1FEE779
:1001700001F056F901A8694601F0D2F8224C234B50
:100180001C1BA410002504E01F4B53F82530984792
:100190000135AC42F8DC1E4C1E4B1C1BA410002584
:1001A00004E01B4B53F8253098470135AC42F8DC8E
:1001B0000198009901F062FF0546174C174B1C1B74
:1001C000A41004E0013C144B53F824309847002C51
:1001D000F8DC284601F076F8BABADECA0000002042
:1001E0009C00002000000020083F0008A000002024
:1001F0007856341232547698A0000020380300203C
:10020000A00000203C0300207C0300087C030008C1
:100210007C0300087C0300087C0300087C030008C2
:1002200008B5FFF773FF00BF00BEFEE71EF0040F26
:100230000CBFEFF30880EFF309807146414A104785
:100240002DE9F04182B004468846134B5E6B9D6BEE
:100250009F6A1B6B13F0020F0DD00F4BDB6A002B54
:1002600009DA4BF6AB6101F057F920B14FF00042CB
:10027000094BDA620CE0094801F066F8CDF800801D
:100280002046394632462B4601F0CEF800BEFEE746
:1002900002B0BDE8F08100BF00ED00E0683D00085D
:1002A00000BEFEE71EF0040F0CBFEFF30880EFF373
:1002B00009807146244A10472DE9F04182B0074673
:1002C0008846084B5D6B9C6B9E6A074801F03CF8C2
:1002D000CDF80080384631462A46234601F0A4F87E
:1002E00000BEFEE700ED00E0783D00081EF0040FC0
:1002F0000CBFEFF30880EFF309807146134A1047F3
:100300002DE9F04182B007468846084B5D6B9C6B37
:100310009E6A074801F018F8CDF80080384631464B
:100320002A46234601F080F800BEFEE700ED00E01B
:10033000843D000800BEFEE700BEFEE700BEFEE70B
:100340007047000041020008B902000801030008DC
:0403500000BEFEE706
:10035400083F000800000020A0000020083F00081B
:100364000000000000000000A00000203C0300206A
:08037400000000000000000081
:1003800010B50446B0F5E06F0FD0B0F5C06F0CD0DB
:10039000B0F5A06F09D0B0F5806F06D0B0F5407F02
:1003A00003D00548632100F0C3FF44F0BF6444F468
:1003B0000034024BDC6010BDE03A000800ED00E0C4
:1003C00010B50446C378012B03D92048752100F0ED
:1003D000AFFF63780F2B03D91C48762100F0A8FFEC
:1003E000A3780F2B03D91948772100F0A1FFE378F8
:1003F00003B3174BDA68D243C2F30222C2F10400FE
:100400000F2323FA02F1637803FA00F2A3780B407A
:1004100013431B012278DBB20E490A4482F80033F1
:100420002378580903F01F03012202FA03F341F86D
:10043000203010BD23785A0903F01F030121994091
:1004400002F12003034A42F8231010BDE03A0008ED
:1004500000ED00E000E100E0F8B505460C46474B32
:1004600098421BD003F58063984217D003F5806350
:10047000984213D003F5806398420FD003F5806350
:1004800098420BD003F58063984207D003F5806350
:10049000984203D03A48B22100F04AFFE3788BB18A
:1004A000042B0FD0282B0DD0482B0BD0142B09D0A8
:1004B000102B07D01C2B05D0182B03D03048B321AC
:1004C00000F036FF23881BB92D48B42100F030FF1F
:1004D000E37803F00F06304613F0100F0AD0A3782C
:1004E000013BDBB2022B03D92548BB2100F020FFE2
:1004F000A07830432378E3B12E68002216E0012370
:1005000093402188194099420FD197000F21B9409B
:1005100026EA010600FA07F10E43E178282901D105
:100520006B6102E0482900D12B610132072AE6D92C
:100530002E602388FF2B20D96F6800211AE001F17B
:1005400008020123934022881A409A4211D14FEAAF
:10055000810E0F2202FA0EF627EA060200FA0EF7C3
:100560001743E278282A00D16B61E278482A00D14B
:100570002B6101310729E2D96F60F8BD0008014005
:10058000083B00084FF6FF730380022383700423A7
:10059000C370704738B504460D462A4B98421CD0AC
:1005A00003F58063984218D003F58063984214D015
:1005B00003F58063984210D003F5806398420CD015
:1005C00003F58063984208D003F58063984204D015
:1005D0001D484FF48F7100F0ABFE6B1E9BB2012BD8
:1005E00028D9042D26D0082D24D0102D22D0202D3E
:1005F00020D0402D1ED0802D1CD0B5F5807F19D085
:10060000B5F5007F16D0B5F5806F13D0B5F5006F46
:1006100010D0B5F5805F0DD0B5F5005F0AD0B5F507
:10062000804F07D0B5F5004F04D0074840F21F11A6
:1006300000F07EFEA3682B4201D0012038BD0020CF
:1006400038BD00BF00080140083B000838B504462B
:100650000D462A4B98421CD003F58063984218D06F
:1006600003F58063984214D003F58063984210D05C
:1006700003F5806398420CD003F58063984208D05C
:1006800003F58063984204D01D484FF4A27100F036
:100690004FFE6B1E9BB2012B28D9042D26D0082DAE
:1006A00024D0102D22D0202D20D0402D1ED0802DE2
:1006B0001CD0B5F5807F19D0B5F5007F16D0B5F503
:1006C000806F13D0B5F5006F10D0B5F5805F0DD0F9
:1006D000B5F5005F0AD0B5F5804F07D0B5F5004FEE
:1006E00004D0074840F2451100F022FEE3682B4297
:1006F00001D0012038BD002038BD00BF00080140F6
:10070000083B000838B504460D46144B98421CD0EF
:1007100003F58063984218D003F58063984214D0A3
:1007200003F58063984210D003F5806398420CD0A3
:1007300003F58063984208D003F58063984204D0A3
:10074000074840F2691100F0F3FD25B904484FF461
:10075000B57100F0EDFD256138BD00BF0008014016
:10076000083B000838B504460D46144B98421CD08F
:1007700003F58063984218D003F58063984214D043
:1007800003F58063984210D003F5806398420CD043
:1007900003F58063984208D003F58063984204D043
:1007A000074840F2791100F0C3FD25B904484FF421
:1007B000BD7100F0BDFD656138BD00BF000801409E
:1007C000083B000838B504460D46431E012B40F295
:1007D0009080042800F08D80082800F08A80634B08
:1007E000984200F086802033984200F08280604B6F
:1007F00098427ED0803398427BD05E4B984278D02E
:1008000003F58073984274D003F58073984270D0DA
:10081000594B98426DD003F58063984269D0B0F58A
:10082000805F66D0B0F5EA1F63D0B0F5EB1F60D0F3
:10083000B0F5004F5DD0514B98425AD001339842E9
:1008400057D00233984254D00433984251D00833E1
:1008500098424ED0B0F1201F4BD03033984248D050
:10086000474B984245D003F58073984241D003F539
:10087000007398423DD0434B98423AD003F57063E1
:10088000984236D0B0F5011F33D03F4B984230D05C
:10089000013398422DD0023398422AD00433984233
:1008A00027D00833984224D01033984221D02033E7
:1008B00098421ED0403398421BD08033984218D0C3
:1008C00003F58073984214D003F50073984210D05A
:1008D00003F5806398420CD003F50063984208D07A
:1008E00003F58053984204D0284840F22A2100F0B2
:1008F0001FFD012D04D9254840F22B2100F018FDE1
:10090000002C02DA224BDB6901E0214B5B68C4F367
:100910000340A2B204F44011B1F5401F07D123F007
:1009200070631B48416821F07061416011E014F46C
:10093000801F06D00321814023EA010343F0706346
:1009400007E0610D090102FA01F123EA010343F016
:1009500070631DB1610D09018A401343002C02DA56
:100960000B4AD36138BD0A4A536038BD10001400E9
:10097000400016000001180000081A0001002000C5
:10098000000130000011200001000080083B000839
:10099000000001400D4B1A6842F001021A605968CC
:1009A0000B4A0A405A601A6822F0847222F480329C
:1009B0001A601A6822F480221A605A6822F4FE0231
:1009C0005A604FF41F029A60704700BF0010024047
:1009D0000000FFF810B5044650B1B0F5803F07D0D5
:1009E000B0F5802F04D0104840F2111100F0A0FCA7
:1009F0000E4B1A6822F480321A601A6822F48022A0
:100A00001A60B4F5803F03D0B4F5802F06D010BD36
:100A1000064A136843F48033136010BD034A136819
:100A200043F4A023136010BD3C3B000800100240BB
:100A300038B50C46054650B1B0F5803F07D0B0F54B
:100A4000403F04D01E4840F27F1100F071FC74B3A7
:100A5000B4F5802F2BD0B4F5002F28D0B4F5402F5B
:100A600025D0B4F5801F22D0B4F5A01F1FD0B4F557
:100A7000C01F1CD0B4F5E01F19D0B4F5001F16D06C
:100A8000B4F5101F13D0B4F5201F10D0B4F5301FEB
:100A90000DD0B4F5401F0AD0B4F5501F07D0B4F5FF
:100AA000601F04D006484FF4C07100F041FC054AB5
:100AB000536823F47C132C431C43546038BD00BF9F
:100AC0003C3B00080010024010B50446012804D940
:100AD00003484FF4CA7100F02BFC024B1C6010BDA0
:100AE0003C3B00086000424210B50446022804D98D
:100AF00005484FF40E7100F01BFC044A536823F0C4
:100B000003031C43546010BD3C3B0008001002402E
:100B1000024B586800F00C00704700BF0010024004
:100B200010B50446A0B1802812D0902810D0A0287B
:100B30000ED0B0280CD0C0280AD0D02808D0E02889
:100B400006D0F02804D006484FF4197100F0F0FBED
:100B5000044A536823F0F0031C43546010BD00BFE7
:100B60003C3B00080010024010B5044680B1B0F5CF
:100B7000806F0DD0B0F5A06F0AD0B0F5C06F07D070
:100B8000B0F5E06F04D0064840F27E2100F0D0FBC3
:100B9000044A536823F4E0631C43546010BD00BF53
:100BA0003C3B00080010024010B5044680B1B0F58F
:100BB000806F0DD0B0F5A06F0AD0B0F5C06F07D030
:100BC000B0F5E06F04D006484FF4267100F0B0FB9A
:100BD000044B586820F4605040EAC400586010BDCF
:100BE0003C3B00080010024010B4294B5B6803F046
:100BF0000C03042B05D0082B06D013BB254B036038
:100C000021E0244B03601EE0214A53685268C3F37D
:100C10008343023312F4803F04D11F4A02FB03F3E3
:100C2000036010E01A4A526812F4003F04D01A4AD6
:100C300002FB03F3036006E0164A02FB03F30360C2
:100C400001E0144B0360124A5368C3F30313134CBF
:100C5000E15CC9B20368CB4043605168C1F3022133
:100C6000615CC9B223FA01F181605168C1F3C2210C
:100C7000615CC9B2CB40C3605268C2F3813208499B
:100C80008A5CD2B2B3FBF2F303615DF8044B7047A8
:100C90000010024000127A0000093D000800002008
:100CA0000400002038B504460D460E4B034003B93E
:100CB00020B90D4840F24A4100F03AFB012D04D919
:100CC000094840F24B4100F033FB25B1074B9A69CC
:100CD00014439C6138BD054A936923EA0404946176
:100CE00038BD00BF0200C0FF3C3B000800100240BE
:100CF00038B504460D460E4B184200D120B90D48B8
:100D000040F2694100F014FB012D04D9094840F27A
:100D10006A4100F00DFB25B1074BDA691443DC6131
:100D200038BD054AD36923EA0404D46138BD00BF45
:100D3000003601813C3B00080010024010B504461B
:100D4000212818D0312816D0392814D0412812D0A3
:100D5000612810D07A280ED07B280CD07C280AD0AD
:100D60007D2808D07E2806D07F2804D00D4840F288
:100D7000345100F0DDFA6309012B02D10A4B1B68E4
:100D800006E0022B02D1084B1B6A01E0064B5B6AAE
:100D900004F01F04E34013F0010F01D0012010BD47
:100DA000002010BD3C3B00080010024000B583B09D
:100DB000002301933120FFF7C1FF019B0133019311
:100DC000019BB3F5A06F01D00028F3D03120FFF7CD
:100DD000B5FF08B1012000E0002003B05DF804FB7E
:100DE00030B587B004460D46654B984213D0A3F545
:100DF000744398420FD003F5806398420BD003F5FB
:100E00008063984207D003F58063984203D05D4821
:100E1000B82100F08DFA2B68013B5B4A934203D95D
:100E20005848B92100F084FAAB8833B1B3F5805F3C
:100E300003D05448BA2100F07BFAEB8863B1B3F5D4
:100E4000805F09D0B3F5005F06D0B3F5405F03D0F3
:100E50004C48BB2100F06CFA2B894BB1B3F5806F85
:100E600006D0B3F5C06F03D04648BC2100F060FA4D
:100E70006A8922F00C039BB203B91AB94148BD211B
:100E800000F056FAAB8963B1B3F5807F09D0B3F5B2
:100E9000007F06D0B3F5407F03D03A48BE2100F072
:100EA00047FAAB8973B1364B9C420BD0A3F5744320
:100EB0009C4207D003F580639C4203D03148C22195
:100EC00000F036FA238A23F440531B041B0CEA88F3
:100ED00013432382A3899BB223F4B05323F00C0164
:100EE000A8882A896B89024313430B43A381A38AF1
:100EF00023F440731B041B0CAA891343A38201A88B
:100F0000FFF772FE1E4B9C4201D1049B00E0039B45
:100F1000A28912B2002A08DA03EB830303EB8303EE
:100F200029684900B3FBF1F107E003EB830303EB0E
:100F3000830329688900B3FBF1F1144BA3FB012360
:100F400058090501642300FB1313A28912B2002A79
:100F500009DAD90032310D4AA2FB0131C1F3421244
:100F600042EA050307E01B013233084AA2FB0323D0
:100F7000C3F343132B439BB2238107B030BD00BFA3
:100F8000003801406C3B00081FAA44001F85EB514C
:100F900038B504460D46164B984214D0A3F5744359
:100FA000984210D003F5806398420CD003F580631B
:100FB000984208D003F58063984204D00D484FF45E
:100FC000B17100F0B5F9012D04D90A4840F263115E
:100FD00000F0AEF92DB1A3899BB243F40053A38175
:100FE00038BDA38923F400531B041B0CA38138BD17
:100FF000003801406C3B000870B504460D461646AB
:10100000364B984214D0A3F57443984210D003F5A0
:10101000806398420CD003F58063984208D003F5B2
:101020008063984204D02E4840F2891100F080F984
:10103000282D1ED040F227739D421AD040F226631D
:101040009D4216D040F225539D4212D040F22443D7
:101050009D420ED040F646039D420AD040F66A13E8
:101060009D4206D0602D04D01D484FF4C57100F09C
:101070005FF9012E04D91A4840F28B1100F058F99B
:1010800040F66A139D420FD1144B9C420CD0A3F53D
:1010900074439C4208D003F580639C4204D01048FE
:1010A00040F28F1100F044F9C5F3421205F01F051C
:1010B0000123AB40012A01D10C3404E0022A01D102
:1010C000103400E014341EB122681343236070BD55
:1010D000226822EA0303236070BD00BF003801408C
:1010E0006C3B000810B504460D4B984214D0A3F594
:1010F0007443984210D003F5806398420CD003F5F6
:101100008063984208D003F58063984204D0054874
:101110004FF41C7100F00CF9A088C0F3080010BD5A
:10112000003801406C3B000838B505460C463B4B87
:10113000984214D0A3F57443984210D003F580630D
:1011400098420CD003F58063984208D003F5806381
:10115000984204D0324840F2D93100F0E9F8282C06
:1011600025D040F227739C4221D040F226639C4256
:101170001DD040F225539C4219D040F224439C429A
:1011800015D040F646039C4211D040F66A139C42AB
:101190000DD0B4F5587F0AD0B4F5187F07D0B4F558
:1011A000B07F04D01E4840F2DA3100F0C1F840F6BA
:1011B0006A139C420FD1194B9D420CD0A3F5744386
:1011C0009D4208D003F580639D4204D0144840F24C
:1011D000DE3100F0ADF8C4F3421204F01F01012328
:1011E0008B40012A03D1AA8992B2134008E0022A57
:1011F00003D12A8A92B2134002E0AA8A92B2134023
:10120000240A0122A240298889B20A4013B11AB9DE
:10121000002038BD002038BD012038BD0038014015
:101220006C3B000838B505460C46244B984214D058
:10123000A3F57443984210D003F5806398420CD014
:1012400003F58063984208D003F58063984204D088
:101250001B4840F2224100F06BF840F226639C42AA
:1012600010D040F225539C420CD040F646039C42DD
:1012700008D040F66A139C4204D0114840F2234142
:1012800000F056F840F66A139C420FD10B4B9D427A
:101290000CD0A3F574439D4208D003F580639D42B2
:1012A00004D0074840F2274100F042F8240A012305
:1012B000A340DB439BB22B8038BD00BF0038014008
:1012C0006C3B0008FEE700BF08B5034800F056F885
:1012D0000120FFF7F7FF00BFA03B000808B50D4B4A
:1012E0001B6813B90C4A0B4B1A600A4B1A68C31CD3
:1012F00023F00303134409498B4206D901F062FF2E
:101300000C2303604FF0FF3008BD02490B6010460C
:1013100008BD00BFA40000203C030020004C0020BA
:1013200001230360014B0B60704700BF18000020D1
:1013300008B503460A460348194600F005F8FFF7CA
:10134000C3FF00BFF43B00080FB400B583B004AB8B
:1013500053F8042B01930848802102F075F8011E10
:1013600003DD054800F04CF80146084603B05DF87F
:1013700004EB04B0704700BFAC00002010B5044679
:1013800002F018F80146204600F03AF80248012120
:1013900000F036F810BD00BFE43C00082DE9F04332
:1013A00085B004460F46435C13BB042528462146FE
:1013B000ABBE04461FE03546102E28BF1025002383
:1013C00006E014F8011B04AA1A4402F8101C0133A9
:1013D000AB42F6D304AA1344002203F8102CE946CA
:1013E0004FF0040840464946ABBE8046761B00E0FD
:1013F0000E46002EDFD1384605B0BDE8F08300BFB1
:1014000008B5FFF7CBFF08BD08B500F0FBF8024BAD
:10141000024A9A6008BD00BF00ED00E0000000082D
:1014200008B500F017F908BDF8B504460D46174693
:101430001E462648FFF788FF25482168FFF784FFEE
:1014400024486168FFF780FF2348A168FFF77CFF0D
:101450002248E168FFF778FF21482169FFF774FF10
:1014600020486169FFF770FF1F48A169FFF76CFF13
:101470001E48E169FFF768FF1D48FFF765FF1D483B
:101480002946FFF761FF1C4CE16A1C48FFF75CFF2F
:10149000216B1B48FFF758FFE16B1A48FFF754FF19
:1014A00015F0800F03D018483946FFF74DFF15F4AB
:1014B000004F03D015483146FFF746FF1448FFF7A9
:1014C00043FF14480699FFF73FFFF8BD4C3C000866
:1014D0005C3C00086C3C00087C3C00088C3C00082C
:1014E0009C3C0008AC3C0008BC3C0008CC3C00081C
:1014F000DC3C0008E83C000800ED00E0F83C000897
:10150000083D0008183D0008283D0008383D000847
:10151000483D0008503D000883691A888A4207D177
:101520000268033A012A05D802338361012070471B
:10153000002070470020704782B000230193009381
:101540002C4A136843F4803313602A4B1B6803F45E
:1015500000330093019B01330193009B1BB9019B56
:10156000B3F5A06FF1D1234B1B6813F4003F02D0F9
:101570000123009301E000230093009B012B36D14F
:101580001D4B1A6842F010021A601A6822F003021A
:101590001A601A6842F002021A60A3F580535A6872
:1015A0005A605A685A605A6842F480625A605A68AF
:1015B00022F47C125A605A6842F4E8125A601A689F
:1015C00042F080721A600B4B1B6813F0007FFAD058
:1015D000084B5A6822F003025A605A6842F002022D
:1015E0005A60044B5B6803F00C03082BF9D102B07E
:1015F000704700BF001002400020024008B5FFF70E
:101600009BFF08BD08B5104B1A6842F001021A6032
:1016100059680E4A0A405A601A6822F0847222F40D
:1016200080321A601A6822F480221A605A6822F402
:10163000FE025A604FF41F029A60FFF7DFFF4FF07F
:101640000062034B9A6008BD001002400000FFF8E2
:1016500000ED00E01F4B5B6803F00C03042B06D089
:10166000082B08D03BBB1C4A1C4B1A6026E01A4AC8
:101670001A4B1A6022E0174A53685268C3F3834337
:10168000023312F4803F05D1154A02FB03F3134ADB
:10169000136013E00F4A526812F4003F05D0104A5D
:1016A00002FB03F30D4A136008E00B4A02FB03F34D
:1016B0000A4A136002E0084A084B1A60054B5B684F
:1016C000C3F30313074AD25CD2B204490B68D34078
:1016D0000B6070470010024000127A0030000020BA
:1016E00000093D0020000020038803F080039BB226
:1016F000002BF9D089B28180038803F040039BB2AC
:10170000002BF9D0704700BF38B505460C4603E002
:101710002846FFF7E9FF013421780029F8D138BDC8
:1017200010B50446FFF7F0FF20460D21FFF7DCFF60
:1017300020460A21FFF7D8FF10BD00BF10B50446B0
:1017400001F0B0FA204601F043FD044601F030FB01
:10175000204610BD48B110B5044601F0A3FA20465A
:1017600001F03EFD01F024FB10BD704700F10803BD
:1017700043604FF0FF328260C36003610023036067
:10178000704700BF00230361704700BF43684B6090
:101790009A688A609A6851609960086103680133A9
:1017A0000360704730B40D68B5F1FF3F01D10269A5
:1017B00007E000F1080200E01A4653681C68AC42DA
:1017C000FAD953684B6099608A6051600861036878
:1017D0000133036030BC70470369426881689160DF
:1017E0008268416851605A68824201D182685A60B9
:1017F0000022026118680138186070472DE9F04135
:1018000082B020480121FEF7DDFF01A8FEF7BAFEF5
:1018100010238DF8073002238DF806304FF48058DE
:10182000ADF80480184C204601A9FEF715FE4FF4D0
:101830000057ADF80470204601A9FEF70DFE4FF4E5
:101840008046ADF80460204601A9FEF705FE4FF47E
:101850000045ADF80450204601A9FEF7FDFD2046E5
:101860004146FEF77FFF20463946FEF77BFF2046C4
:101870003146FEF777FF20462946FEF773FF02B098
:10188000BDE8F08100023000000C014010B50428D2
:1018900071D8DFE800F003192F455B00364C204675
:1018A0004FF48051FEF75EFF20464FF40051FEF7E3
:1018B00059FF20464FF48041FEF754FF20464FF475
:1018C0000041FEF74FFF10BD2B4C20464FF48051D6
:1018D000FEF718FF20464FF40051FEF743FF204665
:1018E0004FF48041FEF73EFF20464FF40041FEF7E3
:1018F00039FF10BD204C20464FF48051FEF702FF07
:1019000020464FF40051FEF7FDFE20464FF4804183
:10191000FEF728FF20464FF40041FEF723FF10BDDD
:10192000154C20464FF48051FEF7ECFE20464FF454
:101930000051FEF7E7FE20464FF48041FEF7E2FE3D
:1019400020464FF40041FEF70DFF10BD0A4C204623
:101950004FF48051FEF7D6FE20464FF40051FEF7BB
:10196000D1FE20464FF48041FEF7CCFE20464FF4D6
:101970000041FEF7C7FE10BD000C014008B5044849
:101980000021802201F03FFC0022024B1A6008BDBA
:10199000B402002030020020024B1868003018BF4B
:1019A0000120704730020020F8B506460D46174664
:1019B000FFF7E4FF0F4C20460F49FFF7A5FE204636
:1019C0003146FFF7A1FE25B920460C49FFF79CFEE2
:1019D0000AE0012D08D1074C20460949FFF794FE83
:1019E00020463946FFF790FE02480649FFF798FE69
:1019F000F8BD00BF00440040C83D0008CC3D0008D1
:101A0000D03D0008483C000810B50446074801F0E6
:101A1000D1FC7F2806DC0548214601F0D3FC18B133
:101A2000012010BD002010BD002010BDB402002018
:101A3000F8B507460E4601F03DF9054609E0FFF707
:101A4000ABFF18B13846FFF7DFFF48B9322001F08D
:101A500053FA741901F02EF9A042F0D30020F8BD1A
:101A60000120F8BD2DE9F04107468846164601F0F1
:101A700021F905460DE0FFF78FFF38B13846FFF733
:101A8000C3FF70B94046FFF7BFFF68B9322001F0CD
:101A900033FA741901F00EF9A042ECD30020BDE82E
:101AA000F0810120BDE8F0810020BDE8F08100BF99
:101AB00000B583B000238DF8053008B1312300E074
:101AC000302302AA02F8043D05480121FFF76CFF0C
:101AD00004484FF4FA71FFF7ABFF03B05DF804FB65
:101AE000C03D0008A43D0008802907DD4FF0FF300D
:101AF00070470A4AD25CC254013300E000238B4293
:101B0000F7DB002304E05818044A105CD05401337A
:101B1000C1F180029A42F6DC084670473402002088
:101B200000B583B0024600238DF804308DF80530EF
:101B300001A8084901F01AFC0748012101AAFFF792
:101B400033FF06484FF4FA71FFF772FF03B05DF8F8
:101B500004FB00BFD43D00089C3D0008A43D0008E4
:101B600070B506460D460120FFF7DAFF034698B32D
:101B7000FFF704FF194C20461949FFF7C5FD204621
:101B80001849FFF7C1FD20461749FFF7BDFD204664
:101B90003146FFF7B9FD20461449FFF7B5FD85B181
:101BA00020461349FFF7B0FD104E20463146FFF79F
:101BB000ABFD20462946FFF7A7FD20463146FFF73B
:101BC000A3FD06480B49FFF7ABFD0B480B4947F255
:101BD0003052FFF747FF0346184670BD00440040EF
:101BE000C83D0008B43E0008D83D0008DC3D0008B0
:101BF000043E0008483C0008A43D0008943D00084D
:101C0000F8B506460D461746FFF7B8FE1E4C2046AF
:101C10001E49FFF779FD20461D49FFF775FD204657
:101C20001C49FFF771FD20463946FFF76DFD204640
:101C30001949FFF769FD20461849FFF765FD204661
:101C40001749FFF761FD20463146FFF75DFD20464D
:101C50001449FFF759FD20462946FFF755FD204658
:101C60001149FFF75DFD1148114941F28832FFF734
:101C7000F9FE28B90F48FFF7C7FE18B10120F8BDDB
:101C80000120F8BD0020F8BD00440040C83D000818
:101C9000AC3D0008D03D0008043E0008E03D0008CF
:101CA000DC3D0008E43D0008483C0008A43D000875
:101CB000AC3E0008E83D0008B1F5006F21D810B532
:101CC00082B00B4604466846114901F04FFB1148AB
:101CD00001216A46FFF768FE0F4810494FF4FA7277
:101CE000FFF7C0FE78B1FFF749FE0D482146FFF728
:101CF0000BFD0C484FF4FA71FFF79AFE28B1012052
:101D000004E000207047002000E0002002B010BD79
:101D1000F03D0008BC3E0008A43D0008AC3E0008B1
:101D200000440040F83D000808B5FFF735FE0346C3
:101D3000F0B11048FFF768FE0346C8B10E480F49DE
:101D400001F040FB034690B113F9012F3A2AFBD171
:101D50000133002204E00A4881540132D2B2013337
:101D600019780029F7D1FFF709FE012300E00023CD
:101D7000184608BDB83D0008B4020020003E000827
:101D80003402002010B582B000230193134840F2C2
:101D90002551FFF7C9F940B1114B1C68621C1A604C
:101DA0000E48FFF79FF90F4B18550D4B1B687F2B03
:101DB00002D900220A4B1A600B4B186801A900F0E7
:101DC0000FFD019B3BB14FF08052084B1A60BFF3EF
:101DD0004F8FBFF36F8F02B010BD00BF00440040B3
:101DE00030020020B40200202C02002004ED00E0AC
:101DF00008B501290DD10378042B02D801330370F3
:101E000001E00123037000780138C0B2FFF73EFD06
:101E100008BD61B90378012B02D9013B037001E0D1
:101E20000523037000780138C0B2FFF72FFD08BD0D
:101E300070B582B000F03EFF0190594B1868002148
:101E40004FF0FF320B4600F0FDFC01280AD1554847
:101E50005549FFF765FC524B186800210A460B46AE
:101E600000F03AFC00252C464FF4FA76002D73D191
:101E7000002C32D14D484E49FFF772FEB0B1484BAD
:101E8000186800214FF0FF320B4600F0DBFC012800
:101E900022D144484749FFF743FC414B18680021D1
:101EA0000A460B4600F018FC012416E03C4B18686B
:101EB00000214FF0FF320B4600F0C4FC01280CD18A
:101EC00038483D49FFF72CFC354B186800210A467D
:101ED0000B4600F001FC00E00124002C5BD0002D3B
:101EE00059D10120FFF7E4FD34483549354AFFF761
:101EF00087FED8B14FF4FA72334B1A60284B18683A
:101F000000214FF0FF320B4600F09CFC012840D12D
:101F100024482E49FFF704FC214B186800210A468B
:101F20000B4600F0D9FB0125142634E01C4B186841
:101F300000214FF0FF320B4600F084FC01282AD12B
:101F400018481D49FFF7ECFB154B186800210A469D
:101F50000B4600F0C1FB1EE0FFF7E6FED8B1002300
:101F60008DF800308DF8013068460221FFF7BCFD86
:101F70009DF800302B2B02D02D2B05D00BE0144800
:101F80000121FFF735FF06E011480021FFF730FF80
:101F900001E00125142601A8314600F079FF65E72C
:101FA0003403002000380140083E0008283E0008A5
:101FB000343E0008403E00085C3E0008603E0008D9
:101FC0006C3E0008743E000828020020783E00089D
:101FD0002C01002008B509484FF40051FEF736FBEC
:101FE000012805D105484FF40051FEF7BBFB08BDA1
:101FF00002484FF40051FEF785FB08BD0010014078
:1020000010B50446FFF7E6FF206800F075FFF9E71A
:1020100000B583B000238DF8053002A82B2300F80B
:10202000043D01210A46FFF747FE03B05DF804FBBB
:1020300030B583B000F03EFE019000250E484FF40D
:102040000061FEF7A7FA044630B1854204D0FFF7DD
:10205000DFFF4FF4C87109E02CB1A54205D1FFF7AD
:10206000D7FFC82102E0142100E0142101A800F0EC
:102070000FFF2546E2E700BF000C01402DE9F043C9
:1020800089B09622894B1A60FEF784FC4FF48030A9
:10209000FEF7A0FCFEF78AFE01281ED10020FEF705
:1020A0003FFD0020FEF780FD4FF48060FEF75CFDF1
:1020B0004FF480304FF4E011FEF7BAFC0120FEF738
:1020C00003FD3920FEF73AFE0028FAD00220FEF781
:1020D0000BFDFEF71DFD0828FBD108200121FEF7AE
:1020E000E1FD44F205000121FEF7DCFD4FF4003074
:1020F0000121FEF7FDFD10200121FEF7D3FD28236D
:102100008DF81F3002258DF81E5008AC4FF4006387
:1021100024F8043D66482146FEF79EF910238DF809
:102120001F308DF81E504FF40053ADF81C3061483D
:102130002146FEF791F9FFF761FB2046FEF722FAF0
:1021400004238DF81F3003268DF81E604FF4816341
:10215000ADF81C30584D28462146FEF77DF94FF466
:102160000173ADF81C3018238DF81F308DF81E60F8
:1021700028462146FEF770F94FF4E133039300241B
:10218000ADF81040ADF81240ADF81440ADF818406D
:102190000C23ADF8163005F5405528460DEB03012C
:1021A000FEF71EFE28460121FEF7F2FE434F384699
:1021B00003A9FEF715FE38460121FEF7E9FE284681
:1021C00040F225510122FEF717FF4FF44070FEF751
:1021D000D7F825238DF808304FF00F098DF80990B6
:1021E0008DF80A4001258DF80B5002A8FEF7E8F89B
:1021F000DFF8EC802023C8F80430384640F225513F
:102200002A46FEF7F9FE4FF44070FEF7B9F8262390
:102210008DF808308DF809908DF80A408DF80B5034
:1022200002A8FEF7CDF84023C8F80430284621461E
:10223000324600F037FA224B186020B12146224680
:10224000234600F049FA01200021032200F02AFA77
:102250001C4B186020B100210A460B4600F03CFAE6
:1022600001230093002301931748184980220F4B44
:1022700000F0B6FC012815D101230093002301933F
:1022800013481449802200F0ABFC01280AD1012335
:1022900000930023019310481049802200F0A0FC15
:1022A000012800D0FEE700F0CDFCFEE72802002068
:1022B000000C0140001001400008014000440040B3
:1022C000340300202C02002001200008983E000862
:1022D00031200008A03E0008311E0008A83E00087A
:1022E00000E100E0FEE700BF10B582B000230193DB
:1022F000174840F22551FEF717FFB8B1144C20469D
:1023000040F22551FEF78EFF2046FEF7EBFEC4B2E9
:1023100063B22B2B03D10F480121FFF769FD64B293
:102320002D2C03D10B480021FFF762FD0A4B1868E2
:1023300001A900F055FA019B3BB14FF08052074BC9
:102340001A60BFF34F8FBFF36F8F02B010BD00BF95
:10235000003801402C0100203403002004ED00E08F
:102360004FF0BF0383F31188BFF36F8FBFF34F8F1D
:10237000FEE700BF06480068006880F3088862B680
:1023800061B6BFF34F8FBFF36F8F00DF00BF000058
:1023900008ED00E04FF0807340F8043C21F00101AB
:1023A00040F8081C034B40F80C3C40F8202C403807
:1023B000704700BF6123000800000000000000001B
:1023C000074B19680868B0E8F00F80F30988BFF37D
:1023D0006F8F4FF0000080F311884EF00D0E7047A4
:1023E000B00100204FF0BF0383F31188BFF36F8F5C
:1023F000BFF34F8F024A136801331360704700BF69
:1024000034000020034A1368013B13600BB983F3C7
:102410001188704734000020000000000000000018
:10242000EFF30980BFF36F8F0D4B1A6820E9F00FAF
:1024300010602DE908404FF0BF0080F3118800F0D4
:1024400075FD4FF0000080F31188BDE80840196861
:102450000868B0E8F00F80F30988BFF36F8F70470A
:10246000B001002008B54FF0BF0383F31188BFF31C
:102470006F8FBFF34F8F00F023FC18B14FF08052E5
:10248000024B1A60002383F3118808BD04ED00E0BD
:10249000034A044B1A600722043B1A60704700BFCE
:1024A0003F19010014E000E008B5094B1A6842F436
:1024B0007F021A601A6842F07F421A60FFF7E8FF55
:1024C0000022044B1A60FFF755FFFFF749FF00BFDA
:1024D00020ED00E03400002010B50446FFF782FF35
:1024E000A26BE36B9A4201D1012400E00024FFF7C4
:1024F00089FF204610BD00BF10B50446FFF772FFEC
:10250000A36B0BB9012400E00024FFF77BFF2046FA
:1025100010BD00BF70B504461646856B026C3AB913
:10252000036843BB406800F00FFE0023636029E0AE
:102530006EB9806800F05CFEA268236C1344A3604F
:102540006268934219D32368A36000201AE0C06830
:1025500000F04EFE236C5B42E2681A44E2602168A0
:102560008A4202D262681344E360022E07D145B169
:10257000013D002006E0002004E0002002E00020F1
:1025800000E000200135A56370BD00BF026C72B190
:1025900010B5C3681344C3604468A34201D3036801
:1025A000C36003460846D96800F022FE10BD70479C
:1025B00038B50546FFF716FF95F84540E4B20AE046
:1025C0006B6A5BB105F1240000F000FD08B100F07A
:1025D00071FD013CE4B263B2002BF1DCFF2385F80E
:1025E0004530FFF70FFFFFF7FDFE95F84440E4B2DA
:1025F0000AE02B695BB105F1100000F0E7FC08B1BF
:1026000000F058FD013CE4B263B2002BF1DCFF2383
:1026100085F84430FFF7F6FE38BD00BF38B50446F4
:102620000D46FFF7DFFE2168E26B236C03FB02100F
:1026300060600020A063A160013A02FB0313E36025
:10264000FF2384F8443084F845307DB92369ABB169
:1026500004F1100000F0BAFC80B14FF08052094B39
:102660001A60BFF34F8FBFF36F8F07E004F11000C4
:10267000FFF77CF804F12400FFF778F8FFF7C2FEBB
:10268000012038BD04ED00E010B5029B0C4609B9ED
:102690001B6000E01A60D8631C6418460121FFF734
:1026A000BDFF10BDF0B583B0064617460D4611B10B
:1026B00001FB00F000E000204830FFF73FF804463F
:1026C00038B100903046294604F148023B46FFF7F6
:1026D000DBFF204603B0F0BDF0B585B004460F46E1
:1026E00001921E460025FFF77DFEA26BE36B9A4226
:1026F00001D3022E21D1204639463246FFF70AFF88
:10270000636A6BB104F1240000F060FC88B14FF003
:102710008052324B1A60BFF34F8FBFF36F8F08E0C8
:1027200038B14FF080522D4B1A60BFF34F8FBFF37B
:102730006F8FFFF767FE01204EE0019B1BB9FFF78B
:1027400061FE002048E01DB902A800F07BFC0125D5
:10275000FFF758FE00F0A6FAFFF744FE94F8443065
:102760005BB2B3F1FF3F02D1002384F8443094F808
:1027700045305BB2B3F1FF3F02D1002384F845300E
:10278000FFF740FE02A801A900F068FCF0B920465E
:10279000FFF7A2FEA0B104F11000019900F008FCBF
:1027A0002046FFF705FF00F003FB00289BD14FF008
:1027B00080520A4B1A60BFF34F8FBFF36F8F92E7BF
:1027C0002046FFF7F5FE00F0F3FA8CE72046FFF70E
:1027D000EFFE00F0EDFA002005B0F0BD04ED00E0E2
:1027E00038B5EFF311844FF0BF0383F31188BFF3C3
:1027F0006F8FBFF34F8F836BC26B9A4217D990F8DC
:10280000452001338363D3B2FF2A0AD1436A83B1DF
:102810000D46243000F0DAFB68B175B10120286064
:102820000CE00133DBB280F84530012006E00020E7
:1028300004E0012002E0012000E0012084F311887F
:1028400038BD00BF2DE9F04184B0044688460192AE
:102850001E460025FFF7C6FDA76B87B3E568204637
:102860004146FFF793FEB6B97B1EA363236813B9F5
:1028700000F09AFC60602369EBB104F1100000F0F5
:10288000A5FBC0B14FF080523D4B1A60BFF34F8F94
:10289000BFF36F8F0FE0E560636A63B104F124005A
:1028A00000F094FB38B14FF08052354B1A60BFF303
:1028B0004F8FBFF36F8FFFF7A5FD01205DE0019BF8
:1028C0001BB9FFF79FFD002057E01DB902A800F0DB
:1028D000B9FB0125FFF796FD00F0E4F9FFF782FD53
:1028E00094F844305BB2B3F1FF3F02D1002384F887
:1028F000443094F845305BB2B3F1FF3F02D100237E
:1029000084F84530FFF77EFD02A801A900F0A6FB80
:1029100038BB2046FFF7F0FDE8B1236833B9FFF775
:1029200061FD606800F0CCFBFFF76CFD04F1240052
:10293000019900F03DFB2046FFF73AFE00F038FA1F
:10294000002887D14FF080520D4B1A60BFF34F8F94
:10295000BFF36F8F7EE72046FFF72AFE00F028FACC
:1029600078E72046FFF724FE00F022FA2046FFF722
:10297000C3FD00283FF46EAF002004B0BDE8F08135
:1029800004ED00E00A4B1B681B680BB9012300E053
:10299000002323B14FF0FF32064B1A607047044BFF
:1029A0001B68DB68DB685A68024B1A60704700BF1F
:1029B00030010020D00100202DE9F04781469846E3
:1029C000089D099F0A9C236B02F18042013A03EBA8
:1029D000820626F00706002306E0C85CE21882F8AB
:1029E0003400CA5C12B101330F2BF6D9002384F8EE
:1029F0004330042D00D90425E56265644FF0000AD8
:102A0000C4F848A0201DFEF7BDFE04F11800FEF733
:102A1000B9FE2461C5F10505A5616462C4F84CA046
:102A200084F850A0304649464246FFF7B3FC206088
:102A300007B13C60BDE8F08738B5002407E004EB3F
:102A400084039B000C481844FEF790FE0134042CCC
:102A5000F5D90A4D2846FEF789FE094C2046FEF7B7
:102A600085FE0848FEF782FE0748FEF77FFE074B0B
:102A70001D60074B1C6038BD44010020D8010020B8
:102A8000EC010020B40100200002002030010020F1
:102A90003C01002010B50446FFF7A4FC204A13684F
:102AA000013313601F4B1B683BB91E4B1C6013683E
:102AB000012B0DD1FFF7C0FF0AE01B4B1B683BB990
:102AC000184B1B68DA6AE36A9A4201D8154B1C60FE
:102AD000164A136801331360E06A154B1B6898426D
:102AE00001D9134B186000EB80008000114B184493
:102AF000211DFEF74BFEFFF785FC0B4B1B686BB1EE
:102B0000084B1B68DA6AE36A9A4207D24FF0805298
:102B1000094B1A60BFF34F8FBFF36F8F10BD00BF1B
:102B2000AC010020B001002034010020D4010020BD
:102B3000140200204401002004ED00E070B50446BA
:102B40000E46174B1D68174B18680430FEF744FEFD
:102B5000B4F1FF3F07D136B1124B19681248043166
:102B6000FEF714FE70BD2C440E4B1B685C60AC423B
:102B700007D20E4B18680B4B19680431FEF712FE92
:102B800070BD0B4B1868074B19680431FEF70AFE3D
:102B9000084B1B689C4201D2064B1C6070BD00BFF5
:102BA000CC010020B0010020000200203C010020E8
:102BB00030010020D001002008B5074B1B68012B15
:102BC00007D94FF08052054B1A60BFF34F8FBFF308
:102BD0006F8FFFF787FBF0E74401002004ED00E072
:102BE0002DE9F04385B080460F4615461E469000FD
:102BF000FEF7A4FD60B181465420FEF79FFD044618
:102C000010B1C0F8309004E04846FEF7A3FD00E0A4
:102C100000248CB10C9B00930D9B01930294002324
:102C20000393404639462A463346FFF7C5FE204601
:102C3000FFF730FF012001E04FF0FF3005B0BDE8A5
:102C4000F08300BF00B583B0002300930F4A0192C8
:102C50000F4810498022FFF7C3FF012813D14FF01E
:102C6000BF0383F31188BFF36F8FBFF34F8F4FF014
:102C7000FF32094B1A600122084B1A600022084BF0
:102C80001A60FFF711FC03B05DF804FBC8010020D7
:102C9000B92B0008C83E0008D001002034010020F4
:102CA000CC010020024A136801331360704700BF53
:102CB000A8010020014B1868704700BFCC0100201C
:102CC000F8B5304B1B68002B50D12F4B1E680136D6
:102CD0001E605EB92D4A11682D4B1868106019608E
:102CE0002C4A136801331360FFF74CFE2A4B1B6814
:102CF0009E4203D200273EE0012700E00027234B3D
:102D00001B681B680BB9012300E0002323B14FF0BF
:102D1000FF32214B1A602EE01C4B1B68DB68DC681D
:102D200063689E4202D21C4A136024E0251D284697
:102D3000FEF752FDA36A1BB104F11800FEF74CFD2B
:102D4000E06A164B1B68984201D9144B186000EBDF
:102D500080008000124B18442946FEF717FDE26AF6
:102D6000104B1B68DB6A9A42C6D2C8E70E4A13684A
:102D70000133136000270D4B1B6803B10127384650
:102D8000F8BD00BFA8010020CC01002030010020C8
:102D90003C01002038010020D00100201402002056
:102DA00044010020B0010020400100201802002052
:102DB00038B5FFF717FB2D4B1A68013A1A601B68EC
:102DC000002B4BD12A4B1B682BBB002449E0294B1D
:102DD000DB68DC6804F11800FEF7FEFC251D2846C0
:102DE000FEF7FAFCE06A244B1B68984201D9224B9B
:102DF000186000EB80008000204B18442946FEF745
:102E0000C5FCE26A1E4B1B68DB6A9A4204D30122AE
:102E10001C4B1A6000E00024164B1B68002BD6D117
:102E20000CB1FFF7AFFD184B1C6854B1FFF748FF1A
:102E300010B10122134B1A60013CF7D10022124B52
:102E40001A60104B1B685BB14FF080520F4B1A6039
:102E5000BFF34F8FBFF36F8F012402E0002400E027
:102E60000024FFF7CFFA204638BD00BFA80100209C
:102E7000AC010020B4010020140200204401002015
:102E8000B0010020180200204001002004ED00E005
:102E900038B505460C46FFF705FF154B18682B683B
:102EA0001919984205D28B4209D9814209D80023C9
:102EB0000CE08B4207D8814207D8002306E00023AC
:102EC00004E0012302E0012300E0012329601BB19B
:102ED000081A0021FFF732FEFFF76AFF38B94FF0FA
:102EE0008052044B1A60BFF34F8FBFF36F8F38BD12
:102EF000CC01002004ED00E010B548B10446FFF716
:102F0000D1FE20460021FFF719FEFFF751FF00E038
:102F1000002038B94FF08052034B1A60BFF34F8F37
:102F2000BFF36F8F10BD00BF04ED00E01B4B1B68AB
:102F30001BB101221A4B1A6070470022184B1A600D
:102F4000184B1B6800E0013B03EB8302920016491B
:102F50008A58002AF7D010B40C469A00D11889007C
:102F600021444868406848601A449200083222446C
:102F7000904205D1416803EB8302920022445160E4
:102F800003EB8302920008490A445268D168074A59
:102F90001160044A13605DF8044B7047A8010020DB
:102FA000180200201402002044010020B00100207B
:102FB00010B50C46044B19681831FEF7F3FB204698
:102FC0000121FFF7BBFD10BDB001002038B5C3687B
:102FD000DC6804F118052846FEF7FEFB134B1B685E
:102FE0009BB9251D2846FEF7F7FBE06A104B1B68CE
:102FF000984201D90E4B186000EB800080000D4B09
:1030000018442946FEF7C2FB03E00B482946FEF7A9
:10301000BDFBE26A094B1B68DB6A9A4203D90120B7
:10302000074B186038BD002038BD00BFA801002044
:103030001402002044010020B4010020B00100204F
:1030400018020020034B1B680360034B1B6843609E
:10305000704700BF38010020CC01002038B504467D
:103060000D46FFF7BFF9114B1A682B68B3F1FF3F0C
:1030700013D020680E490968884202D061689142E5
:103080000DD96168501A83420BD98A1A13442B60F8
:103090002046FFF7D7FF002404E0002402E00124CB
:1030A00000E00124FFF7AEF9204638BDCC01002036
:1030B000380100200122014B1A60704718020020DD
:1030C00000283AD038B50346C16A1C4A1268D26A51
:1030D000914231D28269002A05DB184A1268D26A0D
:1030E000C2F1050282615969DA6A02EB820292003A
:1030F00013480244914201D1012200E00022BAB1FA
:103100001D461C1D2046FEF767FB0C4B1B68D86A4A
:10311000E8620C4B1B68984201D90A4B186000EB1F
:1031200080008000064B18442146FEF72FFB38BD77
:10313000024A1268D26ADA6238BD7047B0010020D4
:10314000440100201402002018B338B50346826CF5
:10315000013A8264C06A596C88421CD0EAB91C46A4
:103160001D1D2846FEF738FB606CE062C0F10503C8
:10317000A3610B4B1B68984201D9094B186000EB07
:1031800080008000074B18442946FEF7FFFA012013
:1031900038BD00207047002038BD002038BD00BF7A
:1031A0001402002044010020054B1B6823B1044B8E
:1031B0001A68936C01339364014B1868704700BF21
:1031C000B0010020014B1868704700BF9800002034
:1031D000024B0146186800F063B800BF9800002059
:1031E000024B0146186800F017B800BF9800002095
:1031F00010B5431E0A44914204D011F8014B03F864
:10320000014FF8E710BD03460244934202D003F891
:10321000011BFAE77047000030B500293CD051F897
:10322000042C0B1F1D49002AB8BF9B180A680C46C6
:1032300012B95A600B6030BD93420DD2196858180C
:10324000904201BF5A5852181A60426823605A606F
:1032500030BD994203D80A4651680029F9D1146853
:1032600015199D420AD11B682344D0188842136067
:1032700012D10868034413604B680CE002D90C2398
:10328000036030BD1C681819884201BF086849688E
:10329000001918605960536030BD00BF2002002043
:1032A00070B5CC1C24F0030408340C2C38BF0C245B
:1032B000002C064603DA0C233360002070BD8C42DC
:1032C000F9D3204A136810461946A1B10A68121BA7
:1032D0000ED40B2A03D90A608B188C501FE08B4246
:1032E0000BBF5A684A6802605A6018BF0B4616E066
:1032F0000B464968E9E7144D2B681BB9304600F0CE
:1033000025F828603046214600F020F8421C03468C
:10331000D1D0C51C25F0030585420AD11C6003F1FC
:103320000B001A1D20F00700821A0AD05142995052
:1033300070BD3046E91A00F009F80130BBD02B46C9
:10334000ECE770BD200200201C02002038B5064CBE
:103350000023054608462360FDF7C0FF431C02D149
:10336000236803B12B6038BD240200200EB400B5E1
:103370004FF402719CB0ADF814106FF0004104914D
:1033800007914FF6FF711DABADF81610084953F8C1
:10339000042B02900690086802A9019300F0BEF881
:1033A000029B00221A701CB05DF804EB03B070475A
:1033B00098000020034613F8012B002AFBD1181AAD
:1033C0000138704730B5037823B90B78002B18BF4C
:1033D000002030BD03461A7801303AB100228C5CDF
:1033E00034B19D5CA542F5D10132F8E7104630BDFD
:1033F000184630BD30B5141E9BB0054604DA8B2349
:1034000003604FF0FF301CE04FF40272ADF80C2067
:103410000CBF224604F1FF32029205924FF6FF7272
:1034200000910491ADF80E2069461A461E9B00F0EB
:1034300075F8431CBCBF8B232B6014B1009B00228A
:103440001A701BB030BD000073B506460D46144619
:103450000093044B314618682A462346FFF7CAFFFB
:1034600002B070BD980000202DE9F0478E688246BA
:10347000B3420C469046994640D38A8912F4906F25
:103480003AD02568096902236F1A656905EB45057D
:1034900095FBF3F57B1C4B449D4238BF1D465305FD
:1034A0000FD52946FFF7FCFE064698B121693A463A
:1034B000FFF79EFEA38923F4906343F08003A3816A
:1034C00013E02A4600F0DBFA064670B9504621693F
:1034D000FFF7A2FE0C23CAF80030A3894FF0FF309B
:1034E00043F04003A381BDE8F08726613E44266097
:1034F0004E466561ED1BA560B14500D24E46324691
:103500002068414600F0A0FAA36800209B1BA3603E
:1035100023681E442660BDE8F08700002DE9F043D3
:103520009DB003938B8906461C060D4690460CD52C
:103530000B6953B94021FFF7B3FE2860286110B929
:103540000C233360CCE040236B61002309932023DC
:103550008DF8293030238DF82A3043461C4613F865
:10356000012B1AB9B4EB08090FD002E0252AF5D1D6
:10357000F8E73046294642464B46FFF775FF0130D3
:1035800000F0A980099B4B4409932378002B00F09D
:10359000A28000234FF0FF32049307930592069315
:1035A0008DF853301A9304F101084446DFF848912E
:1035B00021784846052200F039FA08F10108049BF9
:1035C00030B1C9EB00000122824013430493ECE7C1
:1035D000D80644BF20228DF85320190744BF2B2260
:1035E0008DF8532022782A2A02D0079923460EE02C
:1035F000039A0134111D12680391002ABBBF524285
:1036000043F0020307920792B8BF04930AE01C46F6
:1036100022780133303A092A03D80A2000FB01211D
:10362000F5E7079123782E2B1AD163782A2B0AD13C
:10363000039B02341A1D1B680392002BB8BF4FF086
:10364000FF3305930CE0611C00220C462378013106
:10365000303B092B03D80A2000FB0232F5E7059224
:10366000DFF8988021784046032200F0DFF938B176
:10367000049AC8EB000040238340134304930134B1
:1036800021781A48062204F101088DF8281000F06C
:10369000CDF988B1164B33B9039B073323F00703E9
:1036A0000833039313E003AB0093304604A92A4682
:1036B000104BAFF3008007E003AB0093304604A942
:1036C0002A460C4B00F092F8421C074603D0099B97
:1036D0003B44099341E7AB895B0601D4099801E0BB
:1036E0004FF0FF301DB0BDE8F08300BFDC3E0008A6
:1036F0000000000069340008D23E0008D83E0008EF
:103700002DE9F84391461F468A680B6906469342A5
:10371000B8BF1346C9F8003091F843200C46DDF8D5
:10372000208012B10133C9F800302368990642BFE6
:10373000D9F800300233C9F80030256815F00605C5
:103740001CD094F843302268003318BF012392063E
:103750001FD5E118302081F843005A1C94F8451019
:103760002244023382F8431013E03046394604F114
:1037700019020123C047013007D00135E368D9F8A9
:1037800000209B1A9D42F0DBDBE74FF0FF30BDE8E5
:10379000F8833046394604F14302C0470130F4D083
:1037A0002268D9F80050E36802F00602042A08BF34
:1037B0005D1B2269A3680CBF25EAE57500259342CD
:1037C000C4BF9B1AED184FF00009A9450ADA30462C
:1037D000394604F11A020123C0470130D5D009F15E
:1037E0000109F2E70020BDE8F88300002DE9FF4160
:1037F0000C461746227E98466E2A06460A9B01F121
:10380000430100F0B08012D8632A23D00AD8002ADE
:1038100000F0BD80582A40F0CC8084F84520DFF8C5
:1038200004E257E0642A1ED0692A1CD0C1E0732A42
:1038300000F0B18009D86F2A2ED0702A40F0B980EC
:10384000226842F0200222603FE0752A24D0782AC4
:103850003BD0AEE01A6804F14205111D19601368EF
:1038600084F84230A9E020681A6810F0800F02D076
:10387000101D186008E010F0400F02F104001860FD
:1038800002D0B2F9003000E01368002B3EDA2D229E
:103890005B4284F8432039E020681A6810F0800FFA
:1038A00002D0101D186007E010F0400F02F1040074
:1038B000186001D0138800E01368227EDFF864E10D
:1038C0006F2A0CBF08220A221CE07822DFF858E198
:1038D00084F845202268186812F0800F00F1040572
:1038E0001D6003D1550601D5038800E00368D007A9
:1038F00044BF42F0200222601BB9226822F020025D
:1039000022601022002084F8430002E0DFF814E176
:103910000A226568002DA8BF2068A560A4BF20F01A
:103920000400206003B965B10D46B3FBF2F002FB61
:1039300010331EF8033005F8013D03460028F4D18A
:1039400000E00D46082A0BD12368DA0708D5236961
:1039500062689A42DEBF302305F8013C05F1FF356D
:10396000491B21612EE025681A6815F0800F6069F7
:1039700003D0151D1D60136808E015F0400F02F11B
:1039800004051D60136801D0188000E01860002352
:1039900023610D4616E01A68111D19601568002193
:1039A0002846626800F042F808B1401B6060636816
:1039B00004E004F1420584F842200123236100233E
:1039C00084F84330CDF800803046214603AA3B46B8
:1039D000FFF796FE013002D14FF0FF301FE0304676
:1039E00039462A462369C0470130F5D023689B0732
:1039F00005D4E068039B9842B8BF18460FE0002545
:103A0000E368039A9B1A9D42F3DA3046394604F183
:103A100019020123C0470130DED00135F0E704B0C0
:103A2000BDE8F081E33E0008F43E000810B5C9B2DD
:103A300002449042034605D01C7801308C42F8D1F4
:103A4000184610BD002010BD814210B501EB0203E5
:103A500001D3421E0BE09842FBD28118D21AD34206
:103A600004D013F8014D01F8014DF8E710BD99425B
:103A700004D011F8014B02F8014FF8E710BDF8B57A
:103A8000074615460E4621B91146BDE8F840FFF736
:103A900007BC1AB9FFF7C0FB2846F8BD00F015F8BF
:103AA000A8420ED238462946FFF7FAFB044650B129
:103AB00031462A46FFF79CFB38463146FFF7ACFB00
:103AC00001E03046F8BD2046F8BD51F8040C00284E
:103AD000BEBF091851F8043CC018043870470000F4
:103AE0002E2E2F73797374656D2F7372632F737419
:103AF0006D333266312D7374647065726970682F2E
:103B00006D6973632E6300002E2E2F7379737465B5
:103B10006D2F7372632F73746D333266312D73742E
:103B2000647065726970682F73746D3332663130FA
:103B3000785F6770696F2E63000000002E2E2F7370
:103B4000797374656D2F7372632F73746D3332667E
:103B5000312D7374647065726970682F73746D337E
:103B600032663130785F7263632E63002E2E2F73BE
:103B7000797374656D2F7372632F73746D3332664E
:103B8000312D7374647065726970682F73746D334E
:103B900032663130785F75736172742E6300000095
:103BA00061626F727428292C2065786974696E6768
:103BB0002E2E2E002C2066756E6374696F6E3A206F
:103BC00000000000617373657274696F6E202225B6
:103BD0007322206661696C65643A2066696C6520B1
:103BE000222573222C206C696E652025642573259F
:103BF000730A00006173736572745F706172616D46
:103C00002829206661696C65643A2066696C6520C4
:103C1000222573222C206C696E652025640A000021
:103C20006D61696E28617267633D25642C20617245
:103C300067763D5B000000002C20000022257322E7
:103C4000000000005D293B0A00000000537461631E
:103C50006B206672616D653A0A00000020523020C8
:103C60003D2020253038580A000000002052312025
:103C70003D2020253038580A000000002052322014
:103C80003D2020253038580A000000002052332003
:103C90003D2020253038580A0000000020523132E3
:103CA000203D20253038580A00000000204C5220CA
:103CB0003D2020253038580A0000000020504320C5
:103CC0003D2020253038580A000000002050535273
:103CD000203D20253038580A000000004653522F5E
:103CE0004641523A0A0000002043465352203D20EC
:103CF00020253038580A00002048465352203D20E5
:103D000020253038580A00002044465352203D20D8
:103D100020253038580A00002041465352203D20CB
:103D200020253038580A0000204D4D464152203D94
:103D300020253038580A00002042464152203D20BC
:103D400020253038580A00004D6973630A000000CE
:103D5000204C522F4558435F52455455524E3D20FA
:103D6000253038580A0000005B486172644661756E
:103D70006C745D0A000000005B4275734661756CEF
:103D8000745D0A005B55736167654661756C745DAF
:103D90000A0000004641494C000000002B43574DEB
:103DA0004F4445004F4B0D0A000000002B43495083
:103DB00053544152540000002B4950442C00000041
:103DC0002B4349504D555800415400003F0000001E
:103DD0003D000000256400003D220000220000009C
:103DE00022544350222C0000414C5245414459007A
:103DF00025642C256400000053454E44204F4B00A1
:103E00002B4950442C000000547279696E6720746D
:103E10006F20636F6E6E65637420746F20746865C5
:103E200020736572766572004D595F455350383284
:103E30003636000031323334353637383930000009
:103E4000436F6E6E656374656420746F2057692DCF
:103E50004669206E6574776F726B00002E2E00002D
:103E60003139322E3136382E342E31003135303062
:103E70000000000031000000436F6E6E65637465E2
:103E80006420746F20746865207365727665722093
:103E9000706F727400000000426C696E6B65720096
:103EA000427574746F6E0000455350004552524F76
:103EB000520D0A002B43574A415000002B434950F2
:103EC00053454E440000000049444C4500000000AA
:103ED0004300232D302B2000686C4C00656667453D
:103EE0004647003031323334353637383941424372
:103EF0004445460030313233343536373839616223
:053F000063646566002A
:103F08007856341202040608000000000102030477
:103F18000102030406070809A800002000000000A9
:103F28000000000000000000010203040607080961
:103F380000A24A04AAAAAAAA0000000000000000E1
:103F48000000000000000000000000000000000069
:103F58000000000000000000D03E00080000000043
:103F68000000000000000000000000000000000049
:103F78000000000000000000000000000000000039
:103F88000000000000000000000000000000000029
:103F9800000000000000000038000020325476982D
:040000050800010DE1
:00000001FF
